:10000000FCFF022039190000A5180000A518000007
:10001000A5180000A5180000A5180000A5180000EC
:10002000A5180000A5180000A5180000A5180000DC
:10003000A5180000A5180000A5180000A5180000CC
:10004000A5180000A5180000A5180000A5180000BC
:10005000A5180000A5180000A5180000A5180000AC
:10006000A5180000A5180000A5180000A51800009C
:10007000A5180000A5180000A5180000A51800008C
:10008000A5180000A5180000A5180000A51800007C
:10009000A5180000A5180000A5180000A51800006C
:1000A000A5180000A5180000A5180000A51800005C
:1000B000A5180000A5180000A5180000A51800004C
:1000C000A5180000A5180000A5180000D918000008
:1000D000A5180000A5180000A5180000A51800002C
:1000E000A5180000A5180000A5180000A51800001C
:1000F000A5180000A5180000A5180000A51800000C
:10010000A5180000A5180000A5180000A5180000FB
:10011000A5180000A5180000A5180000A5180000EB
:10012000A5180000A5180000A5180000A5180000DB
:10013000A5180000A5180000A5180000A5180000CB
:10014000A5180000A5180000A5180000A5180000BB
:10015000A5180000A5180000A5180000A5180000AB
:10016000A5180000A5180000A5180000A51800009B
:10017000A5180000A5180000A5180000A51800008B
:10018000A5180000A5180000A5180000A51800007B
:08019000A5180000A5180000ED
:1019380000F05EFCFFF7B6FF01F0D6FA00F0F2FE09
:1019480001F076FA4FF00801BC48FFF7E5FC4FF0CC
:101958000401BB48FFF7A0FEFFF718FD40F6FE079D
:10196800C0F23D0700BF00BF7F1EFDD100BF00BF12
:1019780000BF40F23300FFF729FE4FF00101B148E4
:10198800FFF7CAFC4FF00201AE48FFF7C5FCAE49AD
:10199800AE48FFF7D9FEFFF7E5FE40F6FE07C0F2B6
:1019A8003D0700BF00BF7F1EFDD100BF00BF00BFC5
:1019B800FFF748FE4FF02001A048FFF7ADFCFFF706
:1019C80035FF4FF0FF31A248FFF7A6FCA148006899
:1019D80040F0FF319F48016000219F4801709E48F8
:1019E800007801280ED29D4A9B4801780D2041437A
:1019F8009B4840181146FFF783FE97490878401C1A
:101A08000870ECE700F0BCBB9648FFF78DFE42F685
:101A1800FE47C0F2311700BF00BF7F1EFDD100BFD7
:101A280000BF00BF90480078012828D1FFF70AFEC0
:101A380000210020FFF7DCFA8C4801468C48FFF7AC
:101A4800A3FDB8B18B48FFF773FC00210120FFF715
:101A5800CFFA8948FFF76CFC42F6FE47C0F231170F
:101A680000BF00BF7F1EFDD100BF00BF00BF012126
:101A780082480170FFF73EFD00217B48017000F0AD
:101A880098BBFFF737FD7E48FFF74EFE42F6FE474C
:101A9800C0F2311700BF00BF7F1EFDD100BF00BFDD
:101AA80000BF71480078012828D1FFF7CBFD00213D
:101AB8000020FFF79DFA734801466D48FFF764FD63
:101AC800B8B17148FFF734FC00210120FFF790FA04
:101AD8006E48FFF72DFC45F6FE17C0F2622700BFDF
:101AE80000BF7F1EFDD100BF00BF00BF02216348B9
:101AF8000170FFF7FFFC00215B48017000F059BB43
:101B0800FFF7A0FD00210020FFF772FA6048FFF7F9
:101B18000BFE40F6FE07C0F23D0700BF00BF7F1E68
:101B2800FDD100BF00BF00BF5A48FFF7FDFD40F6DA
:101B3800FE07C0F23D0700BF00BF7F1EFDD100BFFA
:101B480000BF00BF5448FFF7EFFD40F6FE07C0F2A4
:101B58003D0700BF00BF7F1EFDD100BF00BF00BF13
:101B68004E48FFF7E1FD40F6FE07C0F23D0700BF13
:101B780000BF7F1EFDD100BF00BF00BF4848FFF770
:101B8800D3FD40F6FE07C0F23D0700BF00BF7F1E31
:101B9800FDD100BF00BF00BF4248FFF7C5FD40F6BA
:101BA800FE07C0F23D0700BF00BF7F1EFDD100BF8A
:101BB80000BF00BF3C4801462D48FFF7E5FC50B187
:101BC800FFF740FD00210020FFF712FAFFF792FC13
:101BD80003212A480170ECE23448FFF7A5FD40F6DE
:101BE800FE07C0F23D0700BF00BF7F1EFDD100BF4A
:101BF80000BF00BFFFF77EFC40F6FE07C0F23D07BE
:101C080000BF00BF7F1EFDD100BF00BF00BFFFF7B0
:101C180019FD00210020FFF7EBF92548FFF788FBA5
:101C280042F6FE47C0F2311700BF00BF7F1EFDD14C
:101C380000BF00BF00BF1F4801463DE0C0F00F4095
:101C4800D0F00F4000F10F40C42C000000093D0007
:101C580040F00F4048F00F400100FF1F0400FF1F35
:101C68002002FF1F332E00000600FF1F0700FF1F82
:101C78002001FF1F0A00FF1F1600FF1F0500FF1F9E
:101C8800012E00001C00FF1F1F00FF1F2D00FF1F5B
:101C9800F62D0000EB2D00000C2E0000222E000077
:101CA800172E0000E02D00003300FF1F2D2E00002E
:101CB8003600FF1F4300FF1FB348FFF765FC38B924
:101CC800B2480146B048FFF75FFC08B9002000E0C1
:101CD800012040BBFFF70EFCAD48FFF725FD42F69B
:101CE800FE47C0F2311700BF00BF7F1EFDD100BF05
:101CF80000BF00BFFFF7A6FC00210020FFF778F91E
:101D0800A448FFF715FB00210120FFF771F942F6FF
:101D1800FE47C0F2311700BF00BF7F1EFDD100BFD4
:101D280000BF00BF87E7FFF78DFC00210020FFF709
:101D38005FF9994801469448FFF726FC002800F00F
:101D48009D80964801469048FFF71EFC944908601C
:101D5800002194480170934800780C2810D2914BC8
:101D68001978914842188E4908680078107008461A
:101D78000068401C086018460078401C1870EAE7A4
:101D88008948FFF759FBB8B1FFF75CFC0021002038
:101D9800FFF72EF98548FFF7CBFA45F6FE17C0F294
:101DA800622700BF00BF7F1EFDD100BF00BF00BF7C
:101DB80003217F480170FCE1FFF744FC002100206B
:101DC800FFF716F97B48FFF7B3FA00210120FFF768
:101DD8000FF97948FFF7ACFA45F6FE17C0F262270B
:101DE80000BF00BF7F1EFDD100BF00BF00BF6E480F
:101DF800FFF74AFB00B11EE0FFF724FC002100209A
:101E0800FFF7F6F86D48FFF793FA00210120FFF776
:101E1800EFF86B48FFF78CFA45F6FE17C0F2622719
:101E280000BF00BF7F1EFDD100BF00BF00BF032160
:101E38005F480170BDE1FFF75DFBFFF703FC002180
:101E48000020FFF7D5F85F48FFF772FA002101205C
:101E5800FFF7CEF85448FFF76BFA45F6FE17C0F2C5
:101E6800622700BF00BF7F1EFDD100BF00BF00BFBB
:101E780004214F480170FFF7E5FB9AE152480146FB
:101E88004148FFF781FB002800F059804F48014680
:101E98003D48FFF779FB4E49086000214148017031
:101EA800404800780C2810D23E4B1978494842180F
:101EB800474908680078107008460068401C0860A8
:101EC80018460078401C1870EAE74248FFF7B4FA51
:101ED800002831D03348007800F2080109B2012007
:101EE80000B200FA01F109B23B48006840EA01017A
:101EF800394801603748FFF715FBFFF7A3FB0021BE
:101F08000020FFF775F83548FFF712FA0021012085
:101F1800FFF76EF83248FFF70BFA45F6FE17C0F2E6
:101F2800622700BF00BF7F1EFDD100BF00BF00BFFA
:101F380003211F4801703CE103211D480170FFF790
:101F4800D9FA284801461048FFF71EFB14490860D3
:101F5800A0B9FFF777FB00210020FFF749F82248D6
:101F6800FFF7E6F945F6FE17C0F2622700BF00BF8B
:101F78007F1EFDD100BF00BF00BFE2E71B4800780D
:101F8800012840F0F68033E02001FF1F4C00FF1FBE
:101F9800BE2D00005500FF1F6200FF1F6B00FF1FD2
:101FA8003002FF1F0100FF1F3402FF1F6F00FF1FD9
:101FB8000500FF1F7C00FF1F8800FF1F8D00FF1F0B
:101FC8009B00FF1FA300FF1FA900FF1FB200FF1FF8
:101FD8004402FF1F4802FF1F48F00F40B600FF1FD2
:101FE800C300FF1FCB00FF1FCF00FF1F0600FF1F0E
:101FF800FFF728FB00210020FEF7FAFF6E48FFF7E5
:1020080097F945F6FE17C0F2622700BF00BF7F1E92
:10201800FDD100BF00BF00BF002109B267480180A1
:102028006648B0F900000C281FDA65480068007897
:102038000D2809D06148B0F900106248411860487D
:1020480000680078087006E05C48B0F900105D4848
:102058004118002008705A490868401C0860574910
:10206800B1F90000401C0880DAE745F6FE17C0F217
:10207800622700BF00BF7F1EFDD100BF00BF00BFA9
:102088000021514801705048007801282BD24E4851
:1020980001780D2041434D48401801464948FEF754
:1020A800DFFFD8B9FFF7CEFA00210020FEF7A0FF26
:1020B8004748FFF73DF946F2FE77C0F6891700BF9B
:1020C80000BF7F1EFDD100BF00BF00BF3E480178A2
:1020D8004048018003214048017004E03A490878EB
:1020E800401C0870CFE73B48B0F90000B0F1FF3F53
:1020F8003FD0FFF77BF9B0F1FF3F27D03248007897
:1021080000F2080109B2012000B200FA01F109B297
:102118003248006840EA010130480160FFF792FA4E
:1021280000210020FEF764FF2D48FFF701F946F271
:10213800FE77C0F6891700BF00BF7F1EFDD100BF24
:1021480000BF00BF03212448017012E0FFF77AFAAC
:1021580000210020FEF74CFF2248FFF7E9F8002194
:102168000120FEF745FF2048FFF7E2F803211A484F
:1021780001700D2212B200211C48FFF727F918E060
:102188001548007800283FF43FAC13480078012830
:102198003FF477AC1048007802283FF4B1AC0E4801
:1021A800007803283FF418AD0B48007804283FF462
:1021B800C6AEFFF727BCFEE7D800FF1F2E02FF1FA1
:1021C8003002FF1F5502FF1F0100FF1F2002FF1FE3
:1021D800E600FF1FF200FF1F0500FF1F44F00F403D
:1021E800F400FF1FFE00FF1F0D01FF1F3402FF1F39
:1015D40081B0042806D11949096841F480321749B9
:1015E4000A6028E0052806D11449096841F400324C
:1015F40012490A601FE0062806D11049096841F41F
:1016040080220E490A6016E00F2806D10C490968A9
:1016140041F002020A490A600DE010280BD3A0F23F
:10162400100461098A0007498B1804F01F024FF067
:1016340001019140196001B0704700BF24ED00E042
:0816440010E000E000E100E00D
:1016B80081B01CF8019B0BF8019BBBEB0A0FF8D11A
:0416C80001B07047B6
:1016CC0081B04FF000094FF0000CBDEB0A0F04DCA9
:1016DC00BDEB0B0F01DBD446EA464BF8049BBBEB8E
:1016EC000A0FFAD1BCEB0A0F05DDE246D9F800B0BF
:0A16FC000BF1040BF1E701B0704799
:1013200081B0CDF800E0034AFFF702FFDDF800E0EE
:0813300001B070470401040044
:1011300081B0CDF800E0FFF79BFEDDF800E001B0E4
:021140007047F6
:100E700083B0CDF800E006460C4615463046FFF735
:100E8000D7FE40F2FF1306EA03008009002622463F
:100E90002946202E39D24FF0010303FA06F402EA64
:100EA00004031F46A3422ED104031A4B1C19B3009E
:100EB000E51801952C68184B04EA03032B60174BC7
:100EC00001EA0304019B1B6843EA0404019B1C60C4
:100ED00001F48033B3F5803F15D08401104B1B190A
:100EE0001433029301F400333BB1FC43029B1B68B3
:100EF00003EA0404029B1C6005E0029B1B6843EAB2
:100F00000704029B1C60761CC3E7DDF800E003B019
:100F1000704700BF009004400000FFFFFFFF00008B
:040F200000F00F408E
:100C300081B040F2FF1100EA01018909084600F283
:100C400009024FF0010101FA02F20449096841EA80
:100C5000020202490A6001B0704700BF38800440B8
:1016A00081B0CDF800E0034AFFF742FDDDF800E02D
:0816B00001B0704704010200C3
:1013940081B0CDF800E042F28050FFF7D1FE0B4857
:1013A400007840F00801094801700848007840F0CE
:1013B4000401064801700548007840F02001034804
:1013C4000170DDF800E001B0704700BF03C00640C3
:1011440081B0CDF800E003460A48FFF7ADFD0A4A36
:1011540040F2000104B402B440F20002194640F225
:1011640000030448FFF7EEFE02B0DDF800E001B032
:0C117400704700BF00C00640302D000096
:100CAC0081B0304988420CD12F4A30490A60304A11
:100CBC0030490A60304A31490A60314A31490A6088
:100CCC004EE0314988420CD1304A28490A60304AFA
:100CDC0028490A602F4A29490A602F4A29490A6083
:100CEC003EE02E4988420CD12D4A20490A602D4AFB
:100CFC0020490A602C4A21490A602C4A21490A6081
:100D0C002EE02B4988420CD12A4A18490A602A4AFB
:100D1C0018490A60294A19490A60294A19490A607E
:100D2C001EE0284988420CD1274A10490A60274AFC
:100D3C0010490A60264A11490A60264A11490A607C
:100D4C000EE0254988420BD1244A08490A60244AFE
:100D5C0008490A60234A09490A60234A09490A607A
:100D6C0001B0704700A00640FFFFFFFF8002FF1F8D
:100D7C00FFFFFFFF8402FF1FFFFFFFFF8802FF1F23
:100D8C00FFFFFFFF8C02FF1F00B00640FFFFFFFFBD
:100D9C00FFFFFFFFFFFFFFFFFFFFFFFF00C006404D
:100DAC00FFFFFFFFFFFFFFFFFFFFFFFFFFFFFFFF47
:100DBC0000D00640FFFFFFFFFFFFFFFFFFFFFFFF1D
:100DCC00FFFFFFFF00A00E40FFFFFFFFFFFFFFFF35
:100DDC00FFFFFFFFFFFFFFFF00B00E40FFFFFFFF15
:0C0DEC00FFFFFFFFFFFFFFFFFFFFFFFF07
:100F480085B0CDF800E001900291ADF80C20ADF825
:100F58001030BDF81440ADF814400698FFF77CFE39
:100F68000198FFF717FE02990198FFF71FFCBDF8DB
:100F78000C100198FFF754FCBDF810100198FFF70A
:100F8800F3FBBDF814100198FFF70AFC0198FFF76E
:100F9800F1FD0198FFF7F6FDDDF800E005B07047B8
:100C600081B0CDF800E040F2000C83464FEA8C01E1
:100C70000BEB01010968B1F1FF3F12D00BF1340118
:100C80004FEA8C03C91809680A460BEB030109688F
:100C900008461146FFF7CEFB0CF1010C1FFA8CFC45
:0A0CA000E4E7DDF800E001B0704762
:1004340082B0CDF800E080464FEA581202F007027D
:10044400914608F01F04A24693010D4AD3184FF0B9
:100454000102A240019218460A46019900F066FE84
:100464004FEA0933074AD3184FEA8A029C1808F462
:10047400E06322681A432260DDF800E002B07047AE
:0804840000F00F40009004405D
:100B9C0081B01849884204D1012252B216490A6028
:100BAC0026E01649884204D1012252B214490A6047
:100BBC001EE01449884204D1012252B212490A6043
:100BCC0016E01249884204D1012252B210490A603F
:100BDC000EE01049884204D1012252B20E490A603B
:100BEC0006E00E49884203D1012252B20C490A6038
:100BFC0001B0704700A00640A806904200B0064025
:100C0C00AC06904200C00640B006904200D00640B0
:100C1C00B406904200A00E402805904200B00E4051
:040C2C002C059042C1
:1007B40085B0CDF800E08046894601AA1046FFF7CF
:1007C40063FE164A904503D0154A904500D001E0D7
:1007D400019800E002984FEA0912B0FBF2F291B2DC
:1007E40092B2130A9BB298F800201A4388F80020AA
:1007F40008F10103CAB21A7043014FEA0912B3FBAC
:10080400F2F34A0192B29A1AD0B208F10A031A78A2
:1008140002431A70DDF800E005B0704700A00640FE
:0408240000B00640DA
:10048C0081B0CDF800E00446FFF7C8FF40F2E83138
:10049C0000FB01F3194909680A0F1849096801F0B2
:1004AC007061090EC8B21549096801F47001090D93
:1004BC00CDB21249096801F47021090CCEB2D1B247
:1004CC00491C09B259430F462360221D411C09B235
:1004DC00B7FBF1F1116004F20802691C09B2B7FB19
:1004EC00F1F1116004F20C02711C09B2B7FBF1F1CD
:1004FC001160DDF800E001B0704700BF448004409B
:0C04280001480068704700BF6402FF1F1D
:1008280081B0841C23784FF6EF7212B203EA0202F9
:100838002270841C0B0122781A43227001B0704781
:1007700081B001F0020262B1841C01F00203227810
:100780001A432270841C01F0010322781A4322705C
:1007900007E0841C23784FF6FD7212B203EA0202CE
:0607A000227001B0704759
:0C07A80081B002780A43027001B0704773
:100B7C0081B0C21C117841F00401117001B07047B2
:100B8C0081B0C21C117841F00801117001B070479E
:1017500081B0CDF800E00A4601460348FFF710FDCE
:0C176000DDF800E001B0704700700640AA
:101180008AB0CDF800E0504B984210D100244F4B6C
:101190001C60012464B24E4B1C604E4C4E4B1C60D4
:1011A0004E4C4F4B1C604F4C4F4B1C6026E04F4B3E
:1011B000984210D100244E4B1C60012464B24D4B68
:1011C0001C604D4C444B1C604C4C454B1C604C4CC3
:1011D000454B1C6012E04B4B98420FD100244A4B08
:1011E0001C60012464B2494B1C60494C3A4B1C60A2
:1011F000484C3B4B1C60484C3B4B1C60019102909F
:101200001046FFF72DFD06AB1846FFF73FF9029891
:1012100001994FF0FF39002740F200080022022A0E
:1012200036D8B9F1000F33D04FF0010303FA02F5BD
:101230000026322E28D2F400384B1B191B1D1B68C8
:1012400005FB03F4079BB3FBF4F30493994203D922
:10125000049BCB1A039302E0049B5B1A0393039B4A
:101260000593039B4B450BD21746F4002B4B1B19E0
:10127000D3F80080059C059B002B00D105E000E021
:101280004C46761CA146D4E74C46521CA146C6E704
:10129000441CBB0143EA08032370851C01242B78FE
:1012A00064F3C7132B70851C01242B7864F3861319
:1012B0002B70851D01242B7864F345132B70DDF80A
:1012C00000E00AB0704700BF006006401401FF1F35
:1012D00098069042FFFFFFFF7402FF1FFFFFFFFF12
:1012E0007802FF1FFFFFFFFF7C02FF1F0070064018
:1012F0001801FF1F9C069042590E0000FFFFFFFFE0
:10130000250F000000600E401C01FF1F18059042D1
:10131000FFFFFFFFFFFFFFFFFFFFFFFF402A00006F
:10176C0081B0CDF800E0AE20FFF7C6FCD520FFF726
:10177C00C3FC8020FFF7C0FCA820FFF7BDFC3F2076
:10178C00FFF7BAFCD320FFF7B7FC0020FFF7B4FC3F
:10179C004020FFF7B1FC8D20FFF7AEFC1420FFF7C3
:1017AC00ABFC2020FFF7A8FC0020FFF7A5FCA12034
:1017BC00FFF7A2FCC820FFF79FFCDA20FFF79CFC88
:1017CC001220FFF799FC8120FFF796FCCF20FFF742
:1017DC0093FCD920FFF790FCF120FFF78DFCDB2068
:1017EC00FFF78AFC4020FFF787FCA420FFF784FC5E
:1017FC00A620FFF781FCAF20FFF77EFC2120FFF72E
:10180C007BFC0020FFF778FC7F20FFF775FC222083
:10181C00FFF772FC0020FFF76FFC0720FFF76CFC52
:08182C00DDF800E001B0704797
:1011040082B0CDF800E001AA80211170511C087052
:10111400FFF7A0FE01A940F2010302223C20FFF7E1
:0A112400FFFEDDF800E002B07047A6
:100E580081B0CDF800E00348FFF7F2FCDDF800E0D0
:080E680001B070470070064064
:1008480084B0CDF800E04FF000024649884205D157
:1008580045490C6845490968039115E044498842AF
:1008680006D144490A6844490968039114460BE0D3
:100878004249884206D142490A68424909680391B7
:10088800114600E011460C4601940290FFF720FF44
:100898000298019C831C0122197862F34511197092
:1008A800C11C0A78C2F30011F9B1831C002219781F
:1008B80062F345111970C31C0122197862F30411FF
:1008C8001970811D0A78C2F3001129B1831D012214
:1008D800197862F304111970C31C0122197862F3A4
:1008E800410119704FF6FF7038E023460194044621
:1008F8000198E11C0A78C2F3400151B940B123B90B
:100908000520039CA047012028E05A1E1346FFE754
:10091800EFE7A11D0A78C2F3001129B1A31D012236
:10092800197862F304111970E31C0122197862F333
:100938004101197005462346D91C0A78C2F34001C3
:1009480059B148B125B90520039CA047012005E00D
:10095800691E0A461546FFE7EEE70020DDF800E0CD
:1009680004B07047006006401401FF1F6802FF1FB3
:10097800007006401801FF1F6C02FF1F00600E4048
:080988001C01FF1F7002FF1F9C
:1006D80082B0CDF800E04FF000021A49884205D1F7
:1006E80019490B6819490968019115E018498842A8
:1006F80006D118490A6818490968019113460BE0A0
:100708001649884206D116490A68164909680191AE
:10071800114600E011460B461D4604462046FFF7E9
:1007280073FE50B943B11DB90720019CA04704E0EE
:10073800691E08460546FFE7F0E7DDF800E002B06D
:10074800704700BF006006401401FF1F6802FF1FCA
:10075800007006401801FF1F6C02FF1F00600E406A
:080768001C01FF1F7002FF1FBE
:1004100081B0C11C0A78C2F3401181F00101C9B258
:06042000C8B201B07047F4
:100F240081B0CDF800E008B413460A46C1B20448C3
:100F3400FFF72CFD01B0DDF800E001B0704700BF01
:040F440000700640F3
:1009900087B0CDF800E005920246C8B20693079CE6
:1009A00007944FF000016C4CA24206D16B4C2668B4
:1009B0006B4C24680494314614E06A4CA24205D181
:1009C000694C2668694C246804940AE0684CA24289
:1009D00006D1684C2168684C246804940E4600E0F7
:1009E0000E463146440001910292E1B21046FFF7F3
:1009F0000FFE029A019920B91046FFF787FD0020EB
:100A0000A5E000273B46069CA34216D2059CE418AD
:100A10002478019202910393E1B21046FFF7F8FDAA
:100A2000039B0299019A20B91046FFF76FFD002041
:100A30008DE05C1C27463B46E5E7079C012C48D12E
:100A40000B461046C41C2578C5F3400464B141B17F
:100A500023B90420049CA047012078E05A1E1446C4
:100A600000E01C462346EDE7861C0025347865F33C
:100A7000451434700A46C41C2578C5F340045CB99B
:100A800039B122B90420049CA04701205FE0531E25
:100A900000E013461A46EEE7841D2578C5F30014DE
:100AA0002CB1861D0125347865F304143470841D3F
:100AB0002578C5F380142CB1861D0125347865F3A3
:100AC00086143470C61C0125347865F341043470F3
:100AD0002AE0961C0125347865F3820434700B46B5
:100AE0001046C41C2578C5F3400464B941B123B94C
:100AF0000420049CA047012029E05A1E144600E06F
:100B00001C462346EDE7841D2578C5F300142CB15F
:100B1000861D0125347865F304143470C61C012544
:100B2000347865F3410434700A46C41C2578C5F353
:100B300040045CB139B122B90420049CA0470120D3
:100B400005E0531E00E013461A46EEE70020DDF8EC
:100B500000E007B0704700BF006006401401FF1FAF
:100B60006802FF1F007006401801FF1F6C02FF1F84
:0C0B700000600E401C01FF1F7002FF1F00
:1006100082B0CDF800E04FF00003264A904205D1A9
:10062000254A1568254A1268019215E0244A90422D
:1006300006D1244A1368244A126801921D460BE031
:10064000224A904206D1224A1368224A1268019235
:100650001A4600E01A461546841C0123227863F3EB
:1006600004122270021D11702C462946C21C1378F8
:10067000C3F340025AB949B124B90420019CA047F0
:10068000012012E0621E13461C46FFE7EEE7C41C81
:100690000123227863F341022270C21C1378C3F352
:1006A000000282F00102D2B2D0B2DDF800E002B066
:1006B000704700BF006006401401FF1F6802FF1F63
:1006C000007006401801FF1F6C02FF1F00600E4003
:0806D0001C01FF1F7002FF1F57
:10050C0084B0CDF800E04FF000023549884205D1A7
:10051C0034490C6834490968039115E03349884221
:10052C0006D133490A6833490968039114460BE034
:10053C003149884206D131490A6831490968039129
:10054C00114600E011460C46831C0022197862F318
:10055C0045111970831C0022197862F3041119706B
:10056C000194029000F0B2F80298019C2346C11C41
:10057C000A78C2F3400151B944B123B90620039C57
:10058C00A047012027E05A1E1346FFE7EFE7811D25
:10059C000A78C2F3801129B1831D0122197862F304
:1005AC0086111970C31C0122197862F3410119706C
:1005BC002346C11C0A78C2F3400159B14CB123B98E
:1005CC000620039CA047012005E0591E0A4613464D
:1005DC00FFE7EEE70020DDF800E004B0704700BF55
:1005EC00006006401401FF1F6802FF1F00700640E8
:1005FC001801FF1F6C02FF1F00600E401C01FF1F43
:04060C007002FF1F5A
:10164C0082B0CDF800E00020ADF80400BDF8040035
:10165C0008281BD20020ADF80600BDF806001028A3
:10166C000ED2BDF80610BDF80400FFF7BFFC202019
:10167C00FFF794FCBDF80600401CADF80600ECE743
:10168C00BDF80400401CADF80400DFE7DDF800E015
:04169C0002B07047E1
:100FF80082B0CDF800E08DF8041000F2B002D0B253
:1010080000F07CF89DF80420D20012B202F00F0222
:10101800D0B200F073F89DF80420D20012B2121179
:1010280012B202F00F0212B21032D0B200F066F81B
:08103800DDF800E002B0704792
:100FA80084B0CDF800E0A0F2200109B2CA000F49D0
:100FB80089180B46202802D37F2800D8FFE701AA0A
:100FC80040211170511C082212B208461946FFF739
:100FD8000FFFFFF73DFF01A940F2010309223C2062
:100FE800FFF79CFFDDF800E004B0704740270000E1
:100DF80081B00C4601462546844215D2AB188B4279
:100E080012D9AD188B1819460B4611B200E01346DB
:100E18005C1E22466B1E1D461B7823704B1E1BB2A0
:100E280019B2002BF3D110E07AB12C460D4611B25D
:100E3800FFE723782B706B1C1D46631C1C464B1E5A
:0E0E48001BB219B2002BF4D1FFE701B07047C6
:101834001948006840F020011748016041F2FE1782
:10184400C0F27A0700BF00BF7F1EFDD100BF00BFFA
:1018540000BF1248006840F020011048016044F2C3
:10186400FE77C0F2E81700BF00BF7F1EFDD100BFA6
:1018740000BF00BF0848006840F02001064801602E
:1018840041F2FE17C0F27A0700BF00BF7F1EFDD1F0
:1018940000BF00BF00BF7047C4F00F40C8F00F4046
:1017080081B00091014600980B461C465A1C1546AC
:101718000346421C10461A78227022780AB12B46DA
:08172800F3E7084601B0704729
:1017300081B0CDF800E00246117829B11178C8B225
:10174000FFF7C4FC521CF7E7DDF800E001B070477A
:1010CC000449097801F08001C9B201B9F8E7024975
:0C10DC000870704704C0064007C00640C2
:1015900081B0CDF800E006460D46AEB132789AB182
:1015A0002846FFF7A1FDC2B229463046FFF770FD7D
:1015B00008B9304609E02A78D3B2721CD9B2104675
:1015C000FFF73EFD0646E8E70020DDF800E001B049
:0215D000704762
:1010E80081B0014608460B460246401C117801B102
:0C10F800FAE7C11A491E08B201B07047A7
:1010900081B08DF8002002469DF80000C4B2431EC6
:1010A000D8B274B1137823B10C781378A34200D16D
:1010B00004E014780B78E31A18B204E0521C491CBF
:0A10C000ECE7002000B201B0704719
:1010400081B08DF8001001469DF80000FFE70A7896
:10105000824201D1084605E00B46491C1A78002A55
:08106000F5D1002001B070473A
:1013380083B0CDF800E0029000218DF80410002160
:101348008DF8051002990978E1B102990978C8B2B7
:10135800FFF726FE0299491C02919DF80410491CCA
:10136800C9B28DF804100E290BD99DF80510491C37
:101378008DF80510C8B20021FFF73AFE00218DF85C
:0C1388000410DFE7DDF800E003B0704760
:1014FC00002109480170084800781D280AD2064AC4
:10150C001178064841180020087010460078401CDD
:10151C001070F0E7704700BF0000FF1F2001FF1F95
:1014400081B0CDF800E000220F490A7004460E4931
:101450000978012912D20C490A780D214A430B4917
:10146000891808462146FFF7FFFD10B9012000B298
:1014700006E0054A1178491C1170E8E7002000B227
:10148000DDF800E001B070470100FF1F2002FF1FE0
:1010680081B00091014600980A7832B10B78027875
:10107800934202D1491C401CF6E70B7802789A1A71
:0610880010B201B0704738
:1014900081B0CDF800E0002215490A7004461449D5
:1014A000097801291DD2134B11490A780D214A43AD
:1014B0001149891808461946FFF7D6FD60B90C494D
:1014C0000A780D214A430C4989180846214600F044
:1014D0001BF9012000B206E0054A1178491C117081
:1014E000DDE7002000B2DDF800E001B0704700BF8A
:0C14F0000100FF1F0200FF1F2002FF1F71
:10152C0081B0CDF800E0002213490A70064612493A
:10153C00097801291AD210490A780D214A430F491A
:10154C00891808463146FFF789FD50B90C4B0A49FA
:10155C000A780D214A43094989180846194600F0B2
:10156C00CDF8054A1178491C1170E0E7002000B253
:10157C00DDF800E001B070470100FF1F2002FF1FE3
:04158C000300FF1F3A
:1013F4000021104801700F480078012815D20D48CB
:10140400007800F2080109B2012000B200FA01F1EB
:1014140009B209480068084010B90648007807E096
:1014240004490878401C0870E5E74FF6FF7000B2E5
:0C143400704700BF0100FF1F50F00F4088
:1013D40081B013B20246C8B211461DB22CB26B1EC4
:1013E4001DB214B10870491CF8E7104601B07047EB
:1021F80090B072B698480190984802909848039019
:1022080098480490984805909848069098480790F0
:10221800984808909848099098480A9098480B90D0
:1022280098480C90984999480D9099480E900D98A7
:1022380000F007000F9001F0010050B94CF2205057
:10224800944908804DF62810088040F2D21192482F
:1022580001809248007800F0010050B19048007861
:1022680000F0080020B18E49087840F00800087096
:1022780025E0069800F0400008B38A48006840F05E
:102288000051884801608848006800F48070B0B93F
:10229800854801686FF4705001EA000040F440710D
:1022A800814801608048006840F480717E48016080
:1022B8007D4801686FF4007001407B480160AA21E5
:1022C8007A4801700D9800F0100060B978480178DC
:1022D8006FF0600001407648017076480078012868
:1022E80000D0FAE71CE00D9800F01000C0B10E997C
:1022F8007148814208D960216D4801706D480078A5
:10230800802800D0FAE70BE0694801786FF0600098
:1023180001406748017067480078012800D0FAE753
:10232800049966480160664801686FF440200140DE
:10233800029800F440200143614801606148016847
:102348006FF440300140039800F4403001435D4889
:1023580001600F9830B10F98012803D00F98022818
:1023680000D061E0019800F0800050B9089800F0B2
:10237800400028B10B9800F00300002800D100E0CD
:1023880015E05148006840F400714F4801604F481B
:1023980001684F4801404D480160069800F004006C
:1023A80028B14C4801684A4801404A4801600A99E6
:1023B80049480170059949480170059800F00400E2
:1023C80038B14748007800F01000002800D1F8E73D
:1023D80005E04348007800F0100000B1F9E74148F3
:1023E800007800F0BF01C9B2069800F0FD00014373
:1023F8003C480170079800F0E0013B48007800F085
:102408001F000143384801700199384801700B9941
:10241800374801700F98022805D13248007840F0FB
:10242800020130480170B8E0019800F0800020B93E
:102438000B9800F0030000B165E02348006840F401
:1024480000712148016021480168214801401F4866
:102458000160069800F04EB88000000000000C00F3
:102468000000010000001401220000002400000008
:10247800000000000200000046000000000000000C
:10248800000000000000000000000000070000003D
:10249800C0D401000E2005400020054000F0074090
:1024A80002D007403C80044010D0034000E00740C1
:1024B80001E0074003E00740803801004480044001
:1024C8000070044004800440388004404890044070
:1024D800FFF8FFFE4C9004400840064000400640CC
:1024E80006400640014006400340064000500640B2
:1024F8000C40064000F0040028B17A4801687A4888
:102508000140784801600A99784801707848007855
:1025180000F0BF01C9B2069800F0FD0001437448FD
:1025280001700199734801700B99734801700F98F5
:10253800072805D1059840F080017048017002E035
:1025480005996E480170069800F0040048B10B9890
:1025580000F0030028B96A48007800F0020000B9CA
:10256800F9E7059800F0040038B16548007800F0F4
:102578001000002800D1F8E705E06148007800F075
:10258800100000B1F9E7079800F0E0015D48007815
:1025980000F01F0001435B480170089800F0BF017C
:1025A80059480170099800F0BF015848017008980F
:1025B80000F0400028B15448007840F040015248EB
:1025C80001700F98052806D14948007840F00201AB
:1025D800474801701BE00F98062803D00F9807287A
:1025E80000D014E04948007840F0400147480170A5
:1025F8004348007800F0400000B9F9E70F98072831
:1026080005D13E48007800F03F013C4801700F9822
:1026180018B10F98032800D02CE03948007800F052
:102628000C0000B1F9E73A48006840F00101384869
:1026380001604FF00001374801604FF080013648D3
:1026480001604FF00501354801604FF00101324843
:1026580001603148006800F0800000B9F9E7002106
:102668002D4801602A4801686FF0010001402848A0
:1026780001602AE00F98012803D00F98022800D0A3
:1026880007E01F48007800F00C00042800D0F8E7A5
:102698001BE00F98042806D00F98062803D00F983F
:1026A800052800D007E01648007800F00C0008283C
:1026B80000D0F8E709E00F98072806D110480078FD
:1026C80000F00C000C2800D0F8E7154801686FF0FE
:1026D8000F0001400C9800F00F0001431048016002
:1026E80010B070474C900440FFF8FFFE08400640C9
:1026F80001400640005006400C400640004006409D
:102708000640064003400640044006400540064097
:1027180038800440080004400000044004000440DD
:0427280048800440A1
:10272C0081B002490248016001B07047C0D4010079
:04273C006402FF1F15
:0818A40081B0FEE701B07047BE
:1018AC0081B072B60849086840F47000086000BF47
:1018BC0000BF00BF00BFF1EE100A40F44000E1EEA3
:0C18CC00100A62B601B0704788ED00E021
:102E380000B5DFF834B0DFF834A0DFF834C0FEF7AF
:102E480037FCDFF830B0DFF830A0DFF830C0FEF72D
:102E58002FFCDFF824B0DFF828A0DFF828C0FEF741
:102E680027FC00BD704700BF0000FF1FF100FF1FD7
:102E7800D02B0000F200FF1F1401FF1F9C2D000043
:082E88002001FF1FD42D000002
:102EF00000B5DFF810B0DFF810A0FEF7E7FB00BD6B
:0C2F0000704700BF0000FF1F9002FF1F81
:1018D8001148007800F02000C0B200B9F8E70F48BE
:1018E80001780F48017000780D280BD00D4A117847
:1018F8000D4841180A480078087010460078401CC6
:10190800107008E0002106480170002105480170A8
:10191800012106480170704704C0064007C0064010
:10192800F100FF1F0100FF1F2001FF1F0600FF1F1E
:100400000000000000000000FFFFFFFF02FDFFFFF3
:10274000000000000000000000005F00000000002A
:10275000000007000700000000147F147F14000031
:1027600000242A7F2A12000000231308646200005C
:10277000003649552250000000000503000000000B
:10278000001C2241000000000041221C000000004B
:1027900000082A1C2A0800000008083E080800005B
:1027A00000A0600000000000000808080808000001
:1027B000006060000000000000201008040200001B
:1027C000003E5149453E00000000427F40000000AD
:1027D0000062514949460000002241494936000043
:1027E000001814127F1000000027454545390000ED
:1027F000003C4A494930000000017109050300000E
:10280000003649494936000000064949291E0000A2
:1028100000003636000000000000AC6C0000000034
:1028200000081422410000000014141414140000C5
:1028300000412214080000000002015109060000B6
:1028400000324979413E0000007E0909097E0000FE
:10285000007F494949360000003E414141220000C5
:10286000007F4141221C0000007F4949494100008E
:10287000007F090909010000003E4141517200003A
:10288000007F0808087F000000417F410000000031
:10289000002040413F010000007F08142241000059
:1028A000007F404040400000007F020C027F00009B
:1028B000007F0408107F0000003E4141413E0000BF
:1028C000007F090909060000003E4151215E000019
:1028D000007F0919294600000026494949320000B5
:1028E0000001017F01010000003F4040403F000027
:1028F000001F2040201F0000003F4038403F0000E4
:10290000006314081463000000030478040300004B
:102910000061514945430000007F41410000000033
:1029200000020408102000000041417F0000000068
:10293000000402010204000000808080808000000A
:1029400000010204000000000020545454780000EC
:10295000007F484444380000003844442800000008
:1029600000384444487F0000003854545418000094
:1029700000087E09020000000018A4A4A47C000046
:10298000007F08040478000000007D0000000000C3
:102990000080847D00000000007F102844000000BB
:1029A00000417F4000000000007C04180478000013
:1029B000007C08047C00000000384444380000001B
:1029C00000FC24241800000000182424FC0000004F
:1029D00000007C080400000000485454240000005B
:1029E00000047F4400000000003C40407C000000E8
:1029F000001C2040201C0000003C4030403C0000F7
:102A00000044281028440000001CA0A07C00000006
:102A1000004464544C4400000008364100000000AB
:102A200000007F00000000000041360800000000A8
:102A30000002010102010000000205050200000081
:102A4000000000001400000001000000160000005B
:102A50000200000018000000030000001A0000003F
:102A6000040000001C000000050000001E00000023
:102A70000900000020000000060000002200000005
:102A80000A000000240000000700000028000000E9
:102A90000C0000002C0000001000000030000000BE
:102AA000110000003800000012000000400000008B
:102AB0000F00000044000000130000004800000068
:102AC0001400000050000000150000005800000035
:102AD00019000000600000001600000068000000FF
:102AE0001A000000700000001700000080000000C5
:102AF0001C000000900000001D000000A00000006D
:102B00001E000000C000000022000000E0000000E5
:102B10001F000000F0000000230000000001000082
:102B200024000000200100002500000040010000FA
:102B300026000000800100002A000000C001000003
:102B400027000000E00100002B0000000002000050
:102B50002C000000400200002D0000008002000058
:102B60002E0000000003000032000000800300007F
:102B70002F000000C003000033000000000400002C
:102B80003400000080040000350000000005000053
:102B900036000000000600003A00000000070000B8
:102BA00037000000800700003B0000000008000024
:102BB0003C000000000900003D000000000A000089
:102BC0003E000000000C00003F000000000F00006D
:022BD000000003
:022BD200000001
:022BD4000000FF
:042BD600004F4B0061
:0C2BDA00556B6C6A7563656E206A6500BF
:062BE6006D6F64656D00D7
:102BEC004F4B005072696A61766C6A656E206E613B
:0A2BFC00006D72657A75004F4B0002
:102C060043656B616D20706F72756B75002B50415B
:062C1600524B494E47003D
:102C1C002D5041524B494E470043656B616D2070FE
:062C2C006F72756B75006C
:102C32002B5041524B494E47003338310042726F9C
:0A2C42006A20752062617A692E0095
:0C2C4C0042726F6A206E696A6520750094
:102C580062617A69004E656D612070726F73746F7E
:102C6800726100752062617A692E0042726F6A2073
:0A2C7800002D5041524B494E470019
:042C820033383100B2
:102C860042726F6A206F62726973616E00697A20A0
:102C960062617A650033383100506F7A6F766974F5
:022CA6006500C7
:0E2CA8005A76616E6A65207520746F6B750038
:0B2CB6005061726B6972616E6A65000C
:102CC4008106000080060000FFFFFFFF00000000F7
:102CD40000000000000000000000000000000000F0
:102CE40000000000000000000000000000000000E0
:102CF400000000002300080023000800FFFFFFFF7E
:102D040000000000000000000000000000000000BF
:102D140000000000000000000000000000000000AF
:0C2D2400000000000000000000000000A3
:102D30006303000062030000FFFFFFFF00000000CC
:102D40000000000000000000000000000000000083
:102D50000000000000000000000000000000000073
:102D6000000000000000080000000800FFFFFFFF57
:102D70000000000000000000000000000000000053
:102D80000000000000000000000000000000000043
:0C2D900000000000000000000000000037
:022D9C00FFFF37
:0A2D9E005061726B6972616E6F0084
:102DA8004E656D6120736C6F626F646E6968006D4B
:062DB8006A6573746100FE
:102DBE0041542B434E4D493D312C322C302C302C6E
:032DCE00300D00C5
:042DD40000000000FB
:042DD80000000000F7
:042DDC0000000000F3
:102DE00041542B434D47443D340D0041542B434D3A
:062DF00047443D300D00D8
:102DF60041542B434D47463D310D0041542B435220
:062E060045473D310D00BF
:102E0C0041542B434D47443D310D0041542B434D10
:062E1C0047443D330D00A8
:102E220041542B434D47443D320D00415445300D32
:052E32000041540D00F9
:00000001FF
