:10000000FCFF0220598F0000118F0000118F0000AB
:10001000118F0000118F0000118F0000118F000060
:10002000118F0000118F0000118F0000118F000050
:10003000118F0000118F0000118F0000118F000040
:10004000118F0000118F0000118F0000118F000030
:10005000118F0000118F0000118F0000118F000020
:10006000118F0000118F0000118F0000118F000010
:10007000118F0000118F0000118F0000118F000000
:10008000118F0000118F0000118F0000118F0000F0
:10009000118F0000118F0000118F0000118F0000E0
:1000A000118F0000118F0000118F0000118F0000D0
:1000B000118F0000118F0000118F0000118F0000C0
:1000C000118F0000118F0000118F0000118F0000B0
:1000D000118F0000118F0000118F0000118F0000A0
:1000E000118F0000118F0000118F0000118F000090
:1000F000118F0000118F0000118F0000118F000080
:10010000118F0000118F0000118F0000118F00006F
:10011000118F0000118F0000118F0000118F00005F
:10012000118F0000118F0000118F0000118F00004F
:10013000118F0000118F0000118F0000118F00003F
:10014000118F0000118F0000118F0000118F00002F
:10015000118F0000118F0000118F0000118F00001F
:10016000118F0000118F0000118F0000118F00000F
:10017000118F0000118F0000118F0000118F0000FF
:10018000118F0000118F0000118F0000118F0000EF
:08019000118F0000118F000027
:108F580000F00EF8FFF7DCFF04F0B6FFFFF7EEFFB6
:108F680004F072FFFFF7A8FFFFF752FFFCE7FEE7E8
:108E840081B04FF000094FF0000CBDEB0A0F04DC79
:108E9400BDEB0B0F01DBD446EA464BF8049BBBEB5E
:108EA4000A0FFAD1BCEB0A0F05DDE246D9F800B08F
:0A8EB4000BF1040BF1E701B0704769
:108EC00081B0CDF800E0FEF73BF9FFF779FFFFF73F
:108ED0005BFF002800D100E0FEE7FEF77BF90748C2
:108EE0000188074801800748018807480180074832
:108EF000FEF756F8DDF800E001B070473607FF1FB7
:108F00003207FF1F3807FF1FC407FF1F3407FF1F6B
:1071400081B0CDF800E04FF080711C48FFF780F867
:107150004FF000711A48FEF767FF012149B2194844
:10716000016019480068F0B9002149B21548016072
:1071700040F28E17C0F2000700BF00BF7F1EFDD196
:1071800000BF00BF00BF012149B20E48016040F2BC
:107190008E17C0F2000700BF00BF7F1EFDD100BFE9
:1071A00000BF00BFDDE709490948FEF749FFFEF7C8
:1071B00055FFDDF800E001B0704700BF00F10F405F
:1071C00010F10F406020FE436422FE4358DC0000B3
:0471D000801A06001B
:1062500081B0CDF800E0034AFFF77CFDDDF800E0F7
:0862600001B0704704010400C5
:105D540081B0CDF800E0FCF725FDDDF800E001B0EE
:025D6400704786
:1027A80083B0CDF800E006460C4615463046FEF7E5
:1027B80041FC40F2FF1306EA030080090026224686
:1027C8002946202E39D24FF0010303FA06F402EA13
:1027D80004031F46A3422ED104031A4B1C19B3004D
:1027E800E51801952C68184B04EA03032B60174B76
:1027F80001EA0304019B1B6843EA0404019B1C6073
:1028080001F48033B3F5803F15D08401104B1B19B8
:102818001433029301F400333BB1FC43029B1B6861
:1028280003EA0404029B1C6005E0029B1B6843EA60
:102838000704029B1C60761CC3E7DDF800E003B0C8
:10284800704700BF009004400000FFFFFFFF00003A
:0428580000F00F403D
:10103C0081B040F2FF1100EA01018909084600F273
:10104C0009024FF0010101FA02F20449096841EA70
:10105C00020202490A6001B0704700BF38800440A8
:1060280081B0CDF800E0034AFFF790FEDDF800E00C
:0860380001B0704704010200F1
:1060400081B0CDF800E00A4601460348FFF796F913
:0C605000DDF800E001B070470060064081
:10537C008AB0CDF800E0504B984210D100244F4B2E
:10538C001C60012464B24E4B1C604E4C4E4B1C6096
:10539C004E4C4F4B1C604F4C4F4B1C6026E04F4B00
:1053AC00984210D100244E4B1C60012464B24D4B2A
:1053BC001C604D4C444B1C604C4C454B1C604C4C85
:1053CC00454B1C6012E04B4B98420FD100244A4BCA
:1053DC001C60012464B2494B1C60494C3A4B1C6064
:1053EC00484C3B4B1C60484C3B4B1C600191029061
:1053FC001046FEF72DFC06AB1846FEF74FFC029844
:10540C0001994FF0FF39002740F200080022022AD0
:10541C0036D8B9F1000F33D04FF0010303FA02F57F
:10542C000026322E28D2F400384B1B191B1D1B688A
:10543C0005FB03F4079BB3FBF4F30493994203D9E4
:10544C00049BCB1A039302E0049B5B1A0393039B0C
:10545C000593039B4B450BD21746F4002B4B1B19A2
:10546C00D3F80080059C059B002B00D105E000E0E3
:10547C004C46761CA146D4E74C46521CA146C6E7C6
:10548C00441CBB0143EA08032370851C01242B78C0
:10549C0064F3C7132B70851C01242B7864F38613DB
:1054AC002B70851D01242B7864F345132B70DDF8CC
:1054BC0000E00AB0704700BF00600640F000FF1F1C
:1054CC0098069042A10E0000EC07FF1FF90C00009B
:1054DC00F407FF1FD10E0000F007FF1F00700640FD
:1054EC00F400FF1F9C069042F50E00006D100000AA
:1054FC00410D000000600E40F800FF1F180590429F
:10550C000D0F0000211300001D0D0000BCD9000080
:103CA80081B0CDF800E00446FDF738F940F2E8317C
:103CB80000FB01F3194909680A0F1849096801F05E
:103CC8007061090EC8B21549096801F47001090D3F
:103CD800CDB21249096801F47021090CCEB2D1B2F3
:103CE800491C09B259430F462360221D411C09B2E1
:103CF800B7FBF1F1116004F20802691C09B2B7FBC5
:103D0800F1F1116004F20C02711C09B2B7FBF1F178
:103D18001160DDF800E001B0704700BF4480044046
:0C0F240001480068704700BFD407FF1FA1
:103C5C0081B0CDF800E040F2000C83464FEA8C01B5
:103C6C000BEB01010968B1F1FF3F12D00BF13401EC
:103C7C004FEA8C03C91809680A460BEB0301096863
:103C8C0008461146FDF74EF90CF1010C1FFA8CFC9D
:0A3C9C00E4E7DDF800E001B0704736
:100F300082B0CDF800E080464FEA581202F0070276
:100F4000914608F01F04A24693010D4AD3184FF0B2
:100F50000102A240019218460A46019904F0FAFEE5
:100F60004FEA0933074AD3184FEA8A029C1808F45B
:100F7000E06322681A432260DDF800E002B07047A7
:080F800000F00F400090044056
:10605C0081B0002104480180002104480170002116
:10606C000348017001B070470401FF1F0301FF1FBB
:04607C000601FF1FFB
:108DC00081B0CDF800E00E4A0E490F48FDF780FF54
:108DD00040F2E01140F22030FDF71AFEFF20FDF7CF
:108DE0001FFC0021094801700021094801604FF66D
:108DF000FF7109B207480180DDF800E001B070475B
:108E00000D4D00005D3F0000912100002D07FF1F68
:088E10001807FF1F1407FF1FE4
:106CD00081B0054B1860054B1960054B1A60012403
:106CE000044B1C8001B070470808FF1F0C08FF1FF1
:086CF0001008FF1F0401FF1F43
:106A100081B0CDF800E084B28DB24FF6FF73204A0A
:106A20001380FEF7A1FEFEF7A7FE012808D01D4B3C
:106A30001D4A13601D4B1E4A13601E4B1E4A1360F5
:106A40001E4A14801E4A1580AC4203D300231D4AFF
:106A5000137002E05A231B4A1370012140F2000018
:106A6000FEF776FE0023002208B404B400230022BF
:106A700000210020FEF762FC02B000210020FEF79A
:106A80001DFC0023104A1370FEF74AFEFEF746FD78
:106A90000E4B0F4A1360DDF800E001B0704700BFF5
:106AA0000A01FF1F293F00000808FF1FF53E0000F4
:106AB0000C08FF1F1D4C00001008FF1F1408FF1FCB
:106AC0002408FF1F0901FF1F2608FF1FA55A000009
:046AD0002808FF1F74
:1057680081B001210148017001B070476D00FF1F31
:1057780081B00248008801B0704700BF0401FF1FD4
:1057500081B0034A1080034A117001B0704700BF46
:085760001608FF1FEA07FF1FF6
:10533C0081B0BDF80450BDF80860074C2070074CD4
:10534C002180074C2270074C2370074C2580074C9A
:10535C00268001B0704700BFEB07FF1F1E08FF1F20
:10536C001808FF1F1908FF1F1A08FF1F1C08FF1F32
:1052BC0081B0034A1080034A118001B0704700BFCF
:0852CC002008FF1F2208FF1F4C
:1057200082B0CDF800E04FF2C001C4F20F0106488C
:1057300000880191054A0146019800F00BFBDDF855
:1057400000E002B0704700BF0A01FF1F040104001F
:10551C0081B0CDF800E0FEF719FCFEF70BFC012181
:10552C0049B276480160FEF705FCFEF703FC00214A
:10553C0049B2734801600120724C2468A0470120D5
:10554C00704C2468A04701206E4C2468A047E220D0
:10555C006C4C2468A04723206B4C2468A047022085
:10556C00694C2468A0475420674C2468A047E0206D
:10557C00644C2468A0470120634C2468A047FEF7C4
:10558C00A7FCFEF7A5FCE0205E4C2468A047032096
:10559C005D4C2468A047B0205A4C2468A0472820B2
:1055AC00594C2468A0472020574C2468A04703205E
:1055BC00554C2468A0471F20534C2468A047012059
:1055CC00514C2468A047DF204F4C2468A047002092
:1055DC004D4C2468A047F0204A4C2468A047032077
:1055EC00494C2468A0473A20464C2468A0476020C8
:1055FC00454C2468A047E620424C2468A047042070
:10560C00414C2468A0473A203F4C2468A047B62060
:10561C003D4C2468A047B4203A4C2468A047042091
:10562C00394C2468A0472020374C2468A047002020
:10563C00354C2468A0473020334C2468A0473020D8
:10564C00314C2468A04700202F4C2468A047002030
:10565C002D4C2468A04700202B4C2468A047B62072
:10566C00284C2468A0470220274C2468A0470D2012
:10567C00254C2468A0470020234C2468A047162002
:10568C00214C2468A04704201F4C2468A04700200C
:10569C001D4C2468A04700201B4C2468A0473620D2
:1056AC00184C2468A047194801881948008888427A
:1056BC000CD2FEF707FC20B1A020134C2468A047A5
:1056CC0003E06020104C2468A0470BE0FEF7FAFBC7
:1056DC0020B100200C4C2468A04703E0C0200A4CE9
:1056EC002468A0472920074C2468A047012149B20F
:1056FC0003480160DDF800E001B070472810FE435C
:10570C002C10FE430808FF1F0C08FF1F2408FF1F66
:04571C001408FF1F4F
:1021900081B0CDF800E0002252B209490A60C1B214
:1021A0000020FEF791FD002252B206490A6000BFEE
:1021B000012252B203490A60DDF800E001B0704725
:0821C0003010FE433810FE430D
:100CC800020292B241EA02039BB2014A13607047E2
:040CD800C0F00F4019
:103F5C0081B0CDF800E0012252B209490A60C1B229
:103F6C000020FCF7ABFE002252B206490A6000BFEB
:103F7C00012252B203490A60DDF800E001B070473B
:083F8C003010FE433810FE4323
:103F280081B0CDF800E0002252B208490A60FCF7DF
:103F3800BFFF002252B206490A6000BF012252B2F6
:103F480003490A60DDF800E001B070473010FE4315
:043F58003810FE43DC
:100EB800044A13886FF0FF0103EA010140EA0101C7
:080EC80011807047C0F00F40DB
:103EF40081B0CDF800E0012252B208490A60FCF713
:103F0400D9FF002252B206490A6000BF012252B210
:103F140003490A60DDF800E001B070473010FE4349
:043F24003810FE4310
:103F940081B0CDF800E0FCF743FFFCF741FF0023BC
:103FA4005BB20B490B60012252B20A490A600A490A
:103FB4000B60FCF77FFF002252B208490A6001221D
:103FC40052B20A6002490A60DDF800E001B07047AD
:103FD4002C10FE433410FE433010FE433810FE43D1
:100E240040F22607C0F2000700BF00BF7F1EFDD1BD
:080E340000BF00BF00BF7047C2
:103E100081B0CDF800E0002252B20D490A600122C3
:103E200052B20C490A600C490A60FDF745F80022BD
:103E300052B20A490A60012252B20A6004490A6079
:103E4000FCF7F0FFFCF7EEFFDDF800E001B0704793
:103E50002C10FE433410FE433010FE433810FE4356
:103D580081B0CDF800E04FF28000C4F20F004FF0C0
:103D680001014FEA8121224A01F0F0FF002149B206
:103D7800204801604FF28000C4F20F004FF00101AB
:103D88004FEA01311A4A01F0E1FF012149B21A480C
:103D980001604FF28000C4F20F004FF001014FEABA
:103DA800C121134A01F0D2FF012149B21348016031
:103DB8004FF28000C4F20F004FF001014FEA413189
:103DC8000B4A01F0C3FF4FF28000C4F20F004FF01E
:103DD80001014FEA8131064A01F0B8FF012149B2D9
:103DE8000748016007480160DDF800E001B070474E
:103DF800040104002810FE433010FE432C10FE433B
:083E08003410FE433810FE43A4
:103D400040F6FE07C0F23D0700BF00BF7F1EFDD159
:083D500000BF00BF00BF704777
:103EDC0040F2CE77C0F2000700BF00BF7F1EFDD1BD
:083EEC0000BF00BF00BF7047DA
:0C3ED00001480078704700BF0801FF1F88
:1066200082B0CDF800E08DF80400002252B2134988
:106630000A60BE20124C2468A0470620114C246832
:10664000A0479DF804000F4C2468A04701200D4C82
:106650002468A047FF200B4C2468A0470020094C69
:106660002468A0470120074C2468A047012252B2A9
:1066700002490A60DDF800E002B070472C10FE43CA
:086680000808FF1F0C08FF1FB2
:108D880081B0CDF800E03820FDF7E8FBFDF7EEFBF9
:108D980008B101200CE0FDF7E9FD0120FCF7A0FA7D
:108DA800022240F2E01140F22030FDF7F3FD0020EE
:088DB800DDF800E001B0704796
:1065640081B00249087001B0704700BFE907FF1FFE
:1065740081B0CDF800E0FEF7ABFE002840F2000148
:1065840000D90121052840F2000000D2012041EA8F
:10659400000008B1002000E00120DDF800E001B0B7
:0265A40070473E
:1052D40081B0CDF800E0A720FCF794F8DDF800E0F9
:0452E40001B070475E
:1014080082B0CDF800E0C4B201A90C700F4C24687A
:10141800A04701AA0E49097840F20003C8B2114654
:1014280001220C4C2468A04701AA0949097840F216
:101438000103C8B211460122074C2468A04701A93C
:101448000978C8B2DDF800E002B07047EC07FF1F6A
:0C145800E907FF1FF007FF1FF407FF1F4C
:100EA00081B0CDF800E00348FFF746FCDDF800E034
:080EB00001B07047006006402C
:1007380084B0CDF800E04FF000024649884205D168
:1007480045490C6845490968039115E044498842C0
:1007580006D144490A6844490968039114460BE0E4
:100768004249884206D142490A68424909680391C8
:10077800114600E011460C4601940290FFF728FF4D
:100788000298019C831C0122197862F345111970A3
:10079800C11C0A78C2F30011F9B1831C0022197830
:1007A80062F345111970C31C0122197862F3041110
:1007B8001970811D0A78C2F3001129B1831D012225
:1007C800197862F304111970C31C0122197862F3B5
:1007D800410119704FF6FF7038E023460194044632
:1007E8000198E11C0A78C2F3400151B940B123B91C
:1007F8000520039CA047012028E05A1E1346FFE766
:10080800EFE7A11D0A78C2F3001129B1A31D012247
:10081800197862F304111970E31C0122197862F344
:100828004101197005462346D91C0A78C2F34001D4
:1008380059B148B125B90520039CA047012005E01E
:10084800691E0A461546FFE7EEE70020DDF800E0DE
:1008580004B0704700600640F000FF1FFC07FF1F50
:1008680000700640F400FF1F0008FF1F00600E40E4
:08087800F800FF1F0408FF1F38
:1005D80082B0CDF800E04FF000021A49884205D1F8
:1005E80019490B6819490968019115E018498842A9
:1005F80006D118490A6818490968019113460BE0A1
:100608001649884206D116490A68164909680191AF
:10061800114600E011460B461D4604462046FFF7EA
:10062800F3FE50B943B11DB90720019CA04704E06F
:10063800691E08460546FFE7F0E7DDF800E002B06E
:10064800704700BF00600640F000FF1FFC07FF1F57
:1006580000700640F400FF1F0008FF1F00600E40F6
:08066800F800FF1F0408FF1F4A
:1004100081B0C11C0A78C2F3401181F00101C9B258
:06042000C8B201B07047F4
:100EF40081B0CDF800E00348FFF71CFCDDF800E00A
:080F040001B0704700700640C7
:100F0C0081B0CDF800E00348FFF710FCDDF800E0FD
:080F1C0001B0704700600E40B7
:100ED00081B0CDF800E008B413460A46C1B2044818
:100EE000FFF7CEFC01B0DDF800E001B0704700BFB5
:040EF0000060064058
:1008800087B0CDF800E005920246C8B20693079CF7
:1008900007944FF000016C4CA24206D16B4C2668C5
:1008A0006B4C24680494314614E06A4CA24205D192
:1008B000694C2668694C246804940AE0684CA2429A
:1008C00006D1684C2168684C246804940E4600E008
:1008D0000E463146440001910292E1B21046FFF704
:1008E000C7FE029A019920B91046FFF79DFD00202E
:1008F000A5E000273B46069CA34216D2059CE418BF
:100900002478019202910393E1B21046FFF7B0FE02
:10091000039B0299019A20B91046FFF785FD00203C
:100920008DE05C1C27463B46E5E7079C012C48D13F
:100930000B461046C41C2578C5F3400464B141B190
:1009400023B90420049CA047012078E05A1E1446D5
:1009500000E01C462346EDE7861C0025347865F34D
:10096000451434700A46C41C2578C5F340045CB9AC
:1009700039B122B90420049CA04701205FE0531E36
:1009800000E013461A46EEE7841D2578C5F30014EF
:100990002CB1861D0125347865F304143470841D50
:1009A0002578C5F380142CB1861D0125347865F3B4
:1009B00086143470C61C0125347865F34104347004
:1009C0002AE0961C0125347865F3820434700B46C6
:1009D0001046C41C2578C5F3400464B941B123B95D
:1009E0000420049CA047012029E05A1E144600E080
:1009F0001C462346EDE7841D2578C5F300142CB171
:100A0000861D0125347865F304143470C61C012555
:100A1000347865F3410434700A46C41C2578C5F364
:100A200040045CB139B122B90420049CA0470120E4
:100A300005E0531E00E013461A46EEE70020DDF8FD
:100A400000E007B0704700BF00600640F000FF1FE5
:100A5000FC07FF1F00700640F400FF1F0008FF1F87
:0C0A600000600E40F800FF1F0408FF1F9C
:1006700082B0CDF800E04FF00003264A904205D149
:10068000254A1568254A1268019215E0244A9042CD
:1006900006D1244A1368244A126801921D460BE0D1
:1006A000224A904206D1224A1368224A12680192D5
:1006B0001A4600E01A461546841C0123227863F38B
:1006C00004122270021D11702C462946C21C137898
:1006D000C3F340025AB949B124B90420019CA04790
:1006E000012012E0621E13461C46FFE7EEE7C41C21
:1006F0000123227863F341022270C21C1378C3F3F2
:10070000000282F00102D2B2D0B2DDF800E002B005
:10071000704700BF00600640F000FF1FFC07FF1F8E
:1007200000700640F400FF1F0008FF1F00600E402D
:08073000F800FF1F0408FF1F81
:1004280084B0CDF800E04FF000023549884205D18C
:1004380034490C6834490968039115E03349884206
:1004480006D133490A6833490968039114460BE019
:100458003149884206D131490A683149096803910E
:10046800114600E011460C46831C0022197862F3FD
:1004780045111970831C0022197862F30411197050
:100488000194029000F0A4F80298019C2346C11C34
:100498000A78C2F3400151B944B123B90620039C3C
:1004A800A047012027E05A1E1346FFE7EFE7811D0A
:1004B8000A78C2F3801129B1831D0122197862F3E9
:1004C80086111970C31C0122197862F34101197051
:1004D8002346C11C0A78C2F3400159B14CB123B973
:1004E8000620039CA047012005E0591E0A46134632
:1004F800FFE7EEE70020DDF800E004B0704700BF3A
:1005080000600640F000FF1FFC07FF1F0070064058
:10051800F400FF1F0008FF1F00600E40F800FF1FD7
:040528000408FF1FA5
:100D400081B0CDF800E008B413460A46C1B20448A9
:100D5000FFF796FD01B0DDF800E001B0704700BF7D
:040D600000700640D9
:100D1C0081B0CDF800E008B413460A46C1B20448CD
:100D2C00FFF7A8FD01B0DDF800E001B0704700BF8F
:040D3C0000600E4005
:100CF80081B0CDF800E008B413460A46C1B20448F2
:100D0800FFF7B0FE01B0DDF800E001B0704700BFAA
:040D18000060064031
:100A6C0085B0CDF800E08DF8041001469DF8040027
:100A7C0003920493059C05944400A4B244F0010431
:100A8C0001910846E1B2FFF7EDFD019918B908464E
:100A9C00FFF7C4FC58E08E1C0025347865F3041471
:100AAC003470049C012C06D18E1C0125347865F31E
:100ABC00C304347005E08E1C0025347865F3C30440
:100ACC00347001910846FFF72BFD0199049C621EBE
:100ADC00002A34DB15E0019102920846FFF79EFCD8
:100AEC00029A019912E08E1C0125347865F3C30437
:100AFC0034700BE08E1C0025347865F3C30434701D
:100B0C0004E0002AE7D0012AEDD0F3E73AB90C1D36
:100B1C002578039C2570039C641C03940BE00191C5
:100B2C0002920846FFF7FCFC029A0199039C207084
:100B3C00039C641C0394541E23461A46C8E7059C68
:100B4C0014B90846FFF7F2FDDDF800E005B0704778
:10052C0082B0CDF800E04FF000021F49884205D19F
:10053C001E490B681E490968019115E01D49884246
:10054C0006D11D490A681D490968019113460BE043
:10055C001B49884206D11B490A681B49096801914D
:10056C00114600E011460B46011D0C781D46C11CBE
:10057C000A78C2F3400159B94BB125B90320019C4B
:10058C00A04701200BE0691E0A461546FFE7EEE77F
:10059C00C31C0122197862F341011970E0B2DDF835
:1005AC0000E002B0704700BF00600640F000FF1F83
:1005BC00FC07FF1F00700640F400FF1F0008FF1F20
:0C05CC0000600E40F800FF1F0408FF1F35
:10106C0081B0CDF800E008B413460A46C1B204487A
:10107C00FFF7F6FC01B0DDF800E001B0704700BFEF
:04108C0000700640AA
:1013200081B0CDF800E008B413460A46C1B20448C3
:10133000FFF79CFB01B0DDF800E001B0704700BF93
:0413400000600E40FB
:1069740081B0CDF800E000210548017000210548F0
:1069840001700020FEF7AEFCDDF800E001B07047B6
:08699400E007FF1FE207FF1FEF
:1052E80081B0CDF800E00949087050B1084A074973
:1052F800097804B4074B084AC8B20849FCF756FDB8
:1053080001B0DDF800E001B0704700BFE807FF1FFB
:10531800DB07FF1FDA07FF1FD907FF1FD807FF1F8B
:101DB400C4B200984FE01C2464B20C70102464B2C6
:101DC4000470142464B21C70182464B21470274D77
:101DD400274C256048E01C2464B20C70182464B2BB
:101DE4001470142464B21C70102464B20470214D65
:101DF4001F4C256038E0142464B20C70102464B2C3
:101E04000470182464B21C701C2464B214701A4D3B
:101E1400174C256028E0102464B20C70142464B2BA
:101E24001470182464B21C701C2464B20470134D22
:101E34000F4C256018E0002464B20C70002464B2D6
:101E44000470002464B21C70002464B214700C4D3D
:101E5400074C256008E0012CADD0022CBBD0032C2C
:101E6400C9D0042CD7D0E6E7704700BF2CDE0000B1
:101E7400F807FF1F40DE00003CDE000038DE0000F3
:041E840044DE000038
:10699C0081B0CDF800E083B28CB2D0B2FEF7BEFC71
:1069AC00A1B298B2FEF7EAFEDDF800E001B0704744
:1053280081B000F0030202490A7001B0704700BF63
:04533800E107FF1F6B
:1057880081B0CDF800E083B28CB21E4A13801E4A65
:1057980014801E4A1278002A28D01D4A1288934283
:1057A8000ED9FBF725FE032803D10020FFF7B8FD2B
:1057B80005E0FBF71DFE421CD0B2FFF7B1FD10E07B
:1057C800134A128893420CD2FBF712FE18B9032031
:1057D800FFF7A6FD05E0FBF70BFE421ED0B2FFF770
:1057E8009FFD0B4A13800B4A148006E0084A138079
:1057F800084A14800123054A1370DDF800E001B05F
:10580800704700BFE407FF1FE607FF1FE207FF1FFF
:08581800DC07FF1FDE07FF1F84
:1013F80081B00248007801B0704700BFE107FF1FC5
:1071D40043F2D3417B48018040F220317A48018058
:1071E40040F2E011794801801421794801807949FD
:1071F4007948016001217948018079497948016021
:1072040015217948018000217848016000217848DF
:107214000160002177480160002177480160002166
:107224007648016000217648016043F26C6175483C
:10723400018040F220317448018040F2E01173482B
:107244000180012172480180724973480160002164
:107254007248018001217248018000217148016057
:1072640000217148016000217048016000217048CC
:10727400016000216F48016000216F4801604CF6F5
:1072840013016E48018040F220316D48018040F2C4
:10729400E0116C48018001216B4801806B496C4806
:1072A400016000216B48018001216B4801800021AD
:1072B4006A48016000216A48016000216948016050
:1072C4000021694801600021684801600021684884
:1072D40001603C4967480160002167480170B6219C
:1072E4006648018040F28311654801804721654862
:1072F4000180392164480180012164480170002122
:1073040063480180012163480170012162480170D2
:1073140001216248017062496248016001216248AA
:107324000170012161480170614A624802600121D3
:1073340061480170002161480180002160480170AA
:1073440001216048017000215F4801704FF6FF7110
:107354005E4801804CF218615D4801804CF218616E
:107364005C4801804EF21C715B48018003215B483C
:1073740001705B495B48016012495B48016001216F
:107384005A480170B6215A48018040F23C115948CC
:107394000180472158480180392158480180012142
:1073A4005748017000215748018001215648017057
:1073B400012156480170012155480170554956482C
:1073C4000160ABE03407FF1F3607FF1F3807FF1FBC
:1073D4003C07FF1FC4DC00004007FF1F4407FF1FDA
:1073E40030DE00004807FF1F3A07FF1F5407FF1F46
:1073F4005807FF1F4C07FF1F5007FF1F5C07FF1FA5
:107404006007FF1F6407FF1F6607FF1F6807FF1F52
:107414006C07FF1F34DE00007007FF1F7407FF1F97
:107424006A07FF1F8407FF1F8807FF1F7C07FF1FD2
:107434008007FF1F8C07FF1F9007FF1F9407FF1F84
:107444009607FF1F9807FF1F9C07FF1F28DE0000F9
:10745400A007FF1FA407FF1F9A07FF1FB407FF1F02
:10746400B807FF1FAC07FF1FB007FF1FBC07FF1FB4
:10747400C007FF1F0C01FF1F1001FF1F1201FF1F98
:107484001401FF1F1601FF1F1801FF1F1A01FF1F20
:107494001C01FF1F1E01FF1F1F01FF1F2001FF1FF3
:1074A4000000FF1F2401FF1F2801FF1F2901FF1FE8
:1074B4002CD300002C01FF1F3D01FF1F3001FF1FD3
:1074C4003201FF1F3301FF1F3401FF1F3601FF1F6D
:1074D4003801FF1F3A01FF1F3E01FF1F3C01FF1F40
:1074E400D56A00004801FF1F5001FF1F5401FF1F10
:1074F4005601FF1F5801FF1F5A01FF1F5C01FF1FA8
:107504005E01FF1F6001FF1F6201FF1F6301FF1F78
:107514006401FF1F0200FF1F6801FF1F01217D4856
:10752400017001217C4801707C48026001217C4883
:10753400017000217B48018000217B4801700121FA
:107544007A48017000217A4801704FF6FF7179483A
:1075540001804CF21861784801804CF21861774838
:1075640001804EF21C717648018003217548017038
:10757400754976480160764976480160022176486B
:10758400017040F20E117548018040F23C117448BC
:10759400018047217348018039217348018001210A
:1075A4007248017000217248018001217148017004
:1075B40001217148017001217048017070497148BE
:1075C4000160012170480170012170480170704808
:1075D400026001216F48017000216F480180002181
:1075E4006E48017001216E48017000216D480170E0
:1075F4004FF6FF716C4801804CF218616B480180B2
:107604004CF218616A4801804EF21C71694801808D
:107614000321694801706949694801604C49694816
:10762400016003216848017040F2661167480180D7
:1076340040F23C11664801804721664801803921A7
:10764400654801800121654801700021644801807A
:1076540001216448017001216348017001216348DC
:10766400017063496348016001216348017001218D
:107674006248017062480260012162480170002181
:107684006148018000216148017001216048017056
:107694000021604801704FF6FF715F4801804CF291
:1076A40018615E4801804CF218615D4801804EF219
:1076B4001C715C48018003215B4801705B495C4894
:1076C400016023495B48016004215B48017040F27A
:1076D4000F115A48018040F2841159480180472112
:1076E40058480180392158480180012157480170C8
:1076F4000021574801800121564801700121564854
:107704000170012155480170554956480160012115
:1077140000F0AAB86C01FF1F6D01FF1F7001FF1F6D
:107724008101FF1F7401FF1F7601FF1F7701FF1FF7
:107734007801FF1F7A01FF1F7C01FF1F7E01FF1FDD
:107744008201FF1F8001FF1F7D6C00008C01FF1F61
:107754003407FF1F9401FF1F9801FF1F9A01FF1FA9
:107764009C01FF1F9E01FF1FA001FF1FA201FF1F1D
:10777400A401FF1FA601FF1FA701FF1FA801FF1FF0
:107784000400FF1FAC01FF1FB001FF1FB101FF1F69
:10779400B401FF1FC501FF1FB801FF1FBA01FF1F7E
:1077A400BB01FF1FBC01FF1FBE01FF1FC001FF1F64
:1077B400C201FF1FC601FF1FC401FF1FBD690000F6
:1077C400D001FF1FD801FF1FDC01FF1FDE01FF1FD7
:1077D400E001FF1FE201FF1FE401FF1FE601FF1F9D
:1077E400E801FF1FEA01FF1FEB01FF1FEC01FF1F70
:1077F4000600FF1FF001FF1FF401FF1FF501FF1F2B
:10780400F801FF1F0902FF1FFC01FF1FFE01FF1FFC
:10781400FF01FF1F0002FF1F0202FF1F0402FF1FE0
:107824000602FF1F0A02FF1F0802FF1FF96C000077
:107834001402FF1F1C02FF1F2002FF1F2202FF1F52
:107844002402FF1F2602FF1F2802FF1F2A02FF1F18
:107854002C02FF1F2E02FF1F2F02FF1F3002FF1FEB
:107864000800FF1F3402FF1F7A48017001217A4883
:1078740001707A4802600121794801700021794839
:1078840001800021784801700121784801700021AD
:10789400774801704FF6FF71764801804CF2186109
:1078A400754801804CF21861744801804EF21C71D5
:1078B4007348018003217348017073497348016060
:1078C400734974480160052173480170BA217348F3
:1078D40001804721724801802421724801803521AA
:1078E40071480180012171480170012170480170C3
:1078F4007049714801607149714801600021714803
:1079040001800021704801706149704801600621BE
:107914006F480170B6216F480180F6216E480180DE
:1079240047216E48018039216D48018001216D484D
:10793400017000216C48018001216C480170012113
:107944006B48017001216B4801706B496B48016001
:1079540001216B48017001216A4801706A48026084
:1079640001216A48017000216948018000216948A9
:1079740001700121684801700021684801704FF6C8
:10798400FF71674801804CF21861664801804CF22F
:107994001861654801804EF21C716448018003211E
:1079A4006348017063496448016039496348016070
:1079B40007216348017040F20E1162480180F621EC
:1079C4006148018047216148018039216048018074
:1079D40001216048017000215F48018001215F4856
:1079E400017001215E48017001215E4801705E4909
:1079F4005E48016001215E48017001215D4801700B
:107A04005D48026001215D48017000215C480180ED
:107A140000215C48017001215B48017000215B4832
:107A240001704FF6FF715A4801804CF218615948B1
:107A340001804CF21861584801804EF21C7157487D
:107A44000180032156480170564957480160104986
:107A540000F0ACB83802FF1F3902FF1F3C02FF1FC1
:107A64004D02FF1F4002FF1F4202FF1F4302FF1F80
:107A74004402FF1F4602FF1F4802FF1F4A02FF1F66
:107A84004E02FF1F4C02FF1F116500005802FF1F2A
:107A94003407FF1F5C06FF1F6006FF1F6206FF1FFF
:107AA4006406FF1F6606FF1F6806FF1F7706FF1F99
:107AB4007806FF1F0A00FF1F6C06FF1FAC9400002E
:107AC4007006FF1F7406FF1F7606FF1F6002FF1F6C
:107AD4006402FF1F6602FF1F6802FF1F6A02FF1F86
:107AE4006C02FF1F6E02FF1F7002FF1F7202FF1F56
:107AF4007302FF1F7402FF1F0C00FF1F7802FF1F99
:107B04007C02FF1F7D02FF1F8002FF1F9102FF1FE7
:107B14008402FF1F8602FF1F8702FF1F8802FF1FC8
:107B24008A02FF1F8C02FF1F8E02FF1F9202FF1F9B
:107B34009002FF1FD95E00009C02FF1FA402FF1FDA
:107B4400A802FF1FAA02FF1FAC02FF1FAE02FF1F05
:107B5400B002FF1FB202FF1FB402FF1FB602FF1FD5
:107B6400B702FF1FB802FF1F0E00FF1FBC02FF1F5A
:107B7400C002FF1FC102FF1FC402FF1FD502FF1F67
:107B8400C802FF1FCA02FF1FCB02FF1FCC02FF1F48
:107B9400CE02FF1FD002FF1FD202FF1FD602FF1F1B
:107BA400D402FF1F855E0000E002FF1F7B480160D6
:107BB40008217B48017040F266117A480180F62161
:107BC400794801804721794801803921784801802A
:107BD400012178480170002177480180012177480C
:107BE40001700121764801700121764801707649BF
:107BF40076480160012176480170012175480170C1
:107C040075480260012175480170002174480180A3
:107C140000217448017001217348017000217348E8
:107C240001704FF6FF71724801804CF2186171487F
:107C340001804CF21861704801804EF21C716F484B
:107C4400018003216E4801706E496F4801606F49DD
:107C54006F48016009216F480170B6216E480180A8
:107C6400AF216E48018047216D48018039216D485C
:107C7400018001216C48017000216C4801800121C0
:107C84006B48017001216B48017001216A48017041
:107C94006A496B48016001216A48017001216A4800
:107CA40001706A4802600121694801700021694835
:107CB4000180002168480170012168480170002199
:107CC400674801704FF6FF71664801804CF21861F5
:107CD400654801804CF21861644801804EF21C71C1
:107CE400634801800321634801706349634801606C
:107CF4004649634801600A216248017040F20E114E
:107D040061480180AF2161480180472160480180BA
:107D140039216048018001215F48017000215F48DA
:107D2400018001215E48017001215E48017001213A
:107D34005D4801705D495E48016001215D48017044
:107D440001215D4801705D48026001215C480170B9
:107D540000215C48018000215B48017001215B48DF
:107D6400017000215A4801704FF6FF715948018093
:107D74004CF21861584801804CF218615748018050
:107D84004EF21C7156480180032156480170564931
:107D9400564801601D4956480160ABE0E802FF1FE8
:107DA400EC02FF1FEE02FF1FF002FF1FF202FF1F93
:107DB400F402FF1FF602FF1FF802FF1FFA02FF1F63
:107DC400FB02FF1FFC02FF1F1000FF1F0003FF1F29
:107DD4000403FF1F0503FF1F0803FF1F1903FF1FF1
:107DE4000C03FF1F0E03FF1F0F03FF1F1003FF1FD2
:107DF4001203FF1F1403FF1F1603FF1F1A03FF1FA5
:107E04001803FF1F2D5F00002403FF1F3407FF1F0B
:107E14002C03FF1F3003FF1F3203FF1F3403FF1F18
:107E24003603FF1F3803FF1F3A03FF1F3C03FF1FE6
:107E34003E03FF1F3F03FF1F4003FF1F1200FF1FEE
:107E44004403FF1F4803FF1F4903FF1F4C03FF1F89
:107E54005D03FF1F5003FF1F5203FF1F5303FF1F48
:107E64005403FF1F5603FF1F5803FF1F5A03FF1F2E
:107E74005E03FF1F5C03FF1FD55F00006803FF1F45
:107E84007003FF1F7403FF1F7603FF1F7803FF1F98
:107E94007A03FF1F7C03FF1F7E03FF1F8003FF1F66
:107EA4008203FF1F8303FF1F8403FF1F1400FF1FB0
:107EB4008803FF1F8C03FF1F8D03FF1F9003FF1F09
:107EC400A103FF1F9403FF1F9603FF1F9703FF1FC8
:107ED4009803FF1F9A03FF1F9C03FF1F9E03FF1FAE
:107EE400A203FF1FA003FF1F815F0000AC03FF1F5D
:107EF400B403FF1F0B217C48017040F266117B48DC
:107F04000180AF217A48018047217A4801803921D4
:107F14007948018001217948017000217848018065
:107F240001217848017001217748017001217748C7
:107F34000170774977480160012177480170012178
:107F4400764801707648026001217648017000216C
:107F54007548018000217548017001217448017041
:107F64000021744801704FF6FF71734801804CF290
:107F74001861724801804CF21861714801804EF218
:107F84001C717048018003216F4801706F4970486B
:107F940001607049704801600C217048017040F222
:107FA400BE116F480180AF216E48018047216E48A1
:107FB400018039216D48018001216D480170002143
:107FC4006C48018001216C48017001216B480170EB
:107FD40001216B4801706B496B48016001216B48BA
:107FE400017001216A4801706A48026001216A48EF
:107FF4000170002169480180002169480170012154
:10800400684801700021684801704FF6FF716748A5
:1080140001804CF21861664801804CF21861654891
:1080240001804EF21C716448018003216348017091
:108034006349644801604749634801600D2163480E
:10804400017040F2BE1162480180F621614801804E
:10805400472161480180392160480180012160483D
:10806400017000215F48018001215F4801700121F6
:108074005E48017001215E4801705E495E480160FE
:1080840001215E48017001215D4801705D48026074
:1080940001215D48017000215C48018000215C4899
:1080A400017001215B48017000215B4801704FF6AB
:1080B400FF715A4801804CF21861594801804CF212
:1080C4001861584801804EF21C7157480180032101
:1080D400564801705649574801601E495648016088
:1080E4000E21564800F0ACB8B803FF1FBA03FF1FB7
:1080F400BC03FF1FBE03FF1FC003FF1FC203FF1FFC
:10810400C403FF1FC603FF1FC703FF1FC803FF1FCE
:108114001600FF1FCC03FF1FD003FF1FD103FF1F57
:10812400D403FF1FE503FF1FD803FF1FDA03FF1F5C
:10813400DB03FF1FDC03FF1FDE03FF1FE003FF1F42
:10814400E203FF1FE603FF1FE403FF1F695D000056
:10815400F003FF1F3407FF1FF803FF1FFC03FF1F7B
:10816400FE03FF1F0004FF1F0204FF1F0404FF1F80
:108174000604FF1F0804FF1F0A04FF1F0B04FF1F50
:108184000C04FF1F1800FF1F1004FF1F1404FF1F1F
:108194001504FF1F1804FF1F2904FF1F1C04FF1FE1
:1081A4001E04FF1F1F04FF1F2004FF1F2204FF1FC4
:1081B4002404FF1F2604FF1F2A04FF1F2804FF1F97
:1081C400215E00003404FF1F3C04FF1F4004FF1F16
:1081D4004204FF1F4404FF1F4604FF1F4804FF1FFF
:1081E4004A04FF1F4C04FF1F4E04FF1F4F04FF1FD0
:1081F4005004FF1F1A00FF1F5404FF1F5804FF1FE1
:108204005904FF1F5C04FF1F6D04FF1F6004FF1F60
:108214006204FF1F6304FF1F6404FF1F6604FF1F43
:108224006804FF1F6A04FF1F6E04FF1F6C04FF1F16
:10823400BD5D00007804FF1F8004FF1F8404FF1F3E
:10824400017040F2BE117C48018040F23C117B4831
:10825400018047217A48018039217A48018001212F
:108264007948017000217948018001217848017022
:1082740001217848017001217748017077497848D5
:108284000160012177480170012177480170774826
:1082940002600121764801700021764801800021A6
:1082A40075480170012175480170002174480170FE
:1082B4004FF6FF71734801804CF2186172480180D7
:1082C4004CF21861714801804EF21C7170480180B3
:1082D4000321704801707049704801607049714809
:1082E40001600F217048017040F2BE116F48018097
:1082F40040F283116E48018047216E480180392184
:108304006D48018001216D48017000216C48018095
:1083140001216C48017001216B48017001216B48F7
:1083240001706B496B48016001216B4801700121A8
:108334006A4801706A48026001216A48017000219C
:108344006948018000216948017001216848017071
:108354000021684801704FF6FF71674801804CF2B4
:108364001861664801804CF21861654801804EF23C
:108374001C716448018003216348017063496448A7
:10838400016047496348016010216348017040F26D
:10839400162162480180AF2161480180472161486C
:1083A4000180392160480180012160480170002169
:1083B4005F48018001215F48017001215E4801701E
:1083C40001215E4801705E495E48016001215E48FA
:1083D400017001215D4801705D48026001215D4822
:1083E400017000215C48018000215C48017001217A
:1083F4005B48017000215B4801704FF6FF715A48D9
:1084040001804CF21861594801804CF218615848B7
:1084140001804EF21C7157480180032156480170B7
:108424005649574801601E49564801601121564873
:10843400017040F21621A9E08604FF1F8804FF1F83
:108444008A04FF1F8C04FF1F8E04FF1F9004FF1F6C
:108454009204FF1F9304FF1F9404FF1F1C00FF1FBF
:108464009804FF1F9C04FF1F9D04FF1FA004FF1F0F
:10847400B104FF1FA404FF1FA604FF1FA704FF1FCE
:10848400A804FF1FAA04FF1FAC04FF1FAE04FF1FB4
:10849400B204FF1FB004FF1F31630000BC04FF1FC0
:1084A4003407FF1FC404FF1FC804FF1FCA04FF1FB3
:1084B400CC04FF1FCE04FF1FD004FF1FD204FF1FF4
:1084C400D404FF1FD604FF1FD704FF1FD804FF1FC7
:1084D4001E00FF1FDC04FF1FE004FF1FE104FF1F59
:1084E400E404FF1FF504FF1FE804FF1FEA04FF1F55
:1084F400EB04FF1FEC04FF1FEE04FF1FF004FF1F3B
:10850400F204FF1FF604FF1FF404FF1FCD620000F6
:108514000005FF1F0805FF1F0C05FF1F0E05FF1FA9
:108524001005FF1F1205FF1F1405FF1F1605FF1F6F
:108534001805FF1F1A05FF1F1B05FF1F1C05FF1F42
:108544002000FF1F2005FF1F2405FF1F2505FF1F17
:108554002805FF1F3905FF1F2C05FF1F2E05FF1FD0
:108564002F05FF1F3005FF1F3205FF1F3405FF1FB6
:108574003605FF1F3A05FF1F3805FF1F696200001B
:108584004405FF1F4C05FF1F5005FF1F7C48018059
:10859400F6217C48018047217B48018039217B48B2
:1085A400018001217A48017000217A48018001216B
:1085B40079480170012179480170012178480170DE
:1085C400784979480160012178480170012178488F
:1085D40001707848026001217748017000217748D2
:1085E4000180002176480170012176480170002144
:1085F400754801704FF6FF71744801804CF21861A0
:10860400734801804CF21861724801804EF21C716B
:1086140071480180032171480170714971480160FA
:1086240071497248016012217148017040F21621AB
:108634007048018040F23C116F48018047216F4827
:10864400018039216E48018001216E4801700021AA
:108654006D48018001216D48017001216C48017051
:1086640001216C4801706C496C48016001216C481F
:10867400017001216B4801706B48026001216B4855
:10868400017000216A48018000216A4801700121BB
:10869400694801700021694801704FF6FF7168480C
:1086A40001804CF21861674801804CF218616648F9
:1086B40001804EF21C7165480180032164480170F9
:1086C400644965480160484964480160132164486D
:1086D400017040F216216348018040F28311624820
:1086E40001804721614801803921614801800121CD
:1086F4006048017000216048018001215F480170D9
:1087040001215F48017001215E4801705E495F48A4
:10871400016001215E48017001215E4801705E48DC
:10872400026001215D48017000215D480180002143
:108734005C48017001215C48017000215B480170B4
:108744004FF6FF715A4801804CF218615948018074
:108754004CF21861584801804EF21C715748018050
:108764000321574801705749574801601E4957482B
:10877400016014215648017040F2661100F0AAB855
:108784005205FF1F5405FF1F5605FF1F5805FF1F05
:108794005A05FF1F5C05FF1F5E05FF1F5F05FF1FD6
:1087A4006005FF1F2200FF1F6405FF1F6805FF1FF0
:1087B4006905FF1F6C05FF1F7D05FF1F7005FF1F67
:1087C4007205FF1F7305FF1F7405FF1F7605FF1F4A
:1087D4007805FF1F7A05FF1F7E05FF1F7C05FF1F1D
:1087E400AD6400008805FF1F3407FF1F9005FF1FBD
:1087F4009405FF1F9605FF1F9805FF1F9A05FF1F8D
:108804009C05FF1F9E05FF1FA005FF1FA205FF1F5C
:10881400A305FF1FA405FF1F2600FF1FA805FF1FB8
:10882400AC05FF1FAD05FF1FB005FF1FC105FF1FEE
:10883400B405FF1FB605FF1FB705FF1FB805FF1FCF
:10884400BA05FF1FBC05FF1FBE05FF1FC205FF1FA2
:10885400C005FF1F4D640000CC05FF1FD405FF1F9A
:10886400D805FF1FDA05FF1FDC05FF1FDE05FF1F0C
:10887400E005FF1FE205FF1FE405FF1FE605FF1FDC
:10888400E705FF1FE805FF1F2A00FF1FEC05FF1F78
:10889400F005FF1FF105FF1FF405FF1F0506FF1F6D
:1088A400F805FF1FFA05FF1FFB05FF1FFC05FF1F4F
:1088B400FE05FF1F0006FF1F0206FF1F0606FF1F1F
:1088C4000406FF1F554F00001006FF1F1806FF1F68
:1088D4001C06FF1F7748018040F28311764801800F
:1088E4004721764801803921754801800121754866
:1088F4000170002174480180012174480170012134
:108904007348017001217348017073497348016011
:10891400012173480170012172480170724802609C
:1089240001217248017000217148018000217148C1
:1089340001700121704801700021704801704FF6E8
:10894400FF716F4801804CF218616E4801804CF24F
:1089540018616D4801804EF21C716C48018003213E
:108964006B4801706B496C4801606C496C4801604C
:1089740000216C480170F8216B48018084216B4808
:108984000180BB216A48018082216A48018001215B
:10899400694801700021694801800121684801701B
:1089A40001216848017001216748017067496848DE
:1089B400016001216748017001216748017067481F
:1089C400026001216648017000216648018000218F
:1089D40065480170012165480170002164480170F7
:1089E4004FF6FF71634801804CF2186162480180C0
:1089F4004CF21861614801804EF21C71604801809C
:108A04000321604801706049604801606049614821
:108A1400016000216048017040F23B115F48018011
:108A2400D9215F480180F1215E48018059215E48C7
:108A3400018001215D48017000215D480180012110
:108A44005C48017001215C48017001215B480170A0
:108A54005B495C48016001215B48017001215B486E
:108A640001705B48026001215A48017000215A4894
:108A740001800021594801700121594801700021E9
:108A8400584801704FF6FF71574801804CF2186145
:108A9400564801804CF21861554801804EF21C7111
:108AA40054480180032154480170374953480160F8
:108AB400704700BF1E06FF1F2006FF1F2206FF1F70
:108AC4002406FF1F2606FF1F2806FF1F2A06FF1F76
:108AD4002B06FF1F2C06FF1F2D00FF1F3006FF1F54
:108AE4003406FF1F3506FF1F3806FF1F4906FF1F08
:108AF4003C06FF1F3E06FF1F3F06FF1F4006FF1FE9
:108B04004206FF1F4406FF1F4606FF1F4A06FF1FBB
:108B14004806FF1F956300005406FF1F6407FF1FEC
:108B24008C06FF1F9006FF1F9206FF1F9406FF1F6F
:108B34009606FF1F9806FF1F9A06FF1F9C06FF1F3D
:108B44009E06FF1F9F06FF1FA006FF1F2F00FF1F8B
:108B5400A406FF1FA806FF1FA906FF1FAC06FF1FE0
:108B6400BD06FF1FB006FF1FB206FF1FB306FF1F9F
:108B7400B406FF1FB606FF1FB806FF1FBA06FF1F85
:108B8400BE06FF1FBC06FF1F39620000C806FF1F98
:108B94009407FF1FD006FF1FD406FF1FD606FF1F32
:108BA400D806FF1FDA06FF1FDC06FF1FDE06FF1FC5
:108BB400E006FF1FE206FF1FE306FF1FE406FF1F98
:108BC4003400FF1FE806FF1FEC06FF1FED06FF1F22
:108BD400F006FF1F0107FF1FF406FF1FF606FF1F25
:108BE400F706FF1FF806FF1FFA06FF1FFC06FF1F0C
:108BF400FE06FF1F0207FF1F0007FF1F0C07FF1FD2
:106FA00086B0CDF800E000225D490A700021ADF8FE
:106FB000041000218DF8061000218DF80C1059499D
:106FC0000860811C0A8858490988914208D15549AE
:106FD0000968091D0A8855490988914200D142E093
:106FE000534A11688DF81410002149B21160514BB9
:106FF000514A5249084611461A46FFF769FE494B65
:107000001968091D09888AB219460968891C098806
:1070100088B291B2FFF7FCFC424B1968091D098840
:107020008AB219460968891C098888B291B2FEF7AC
:10703000ABFB3C490968098888B2FFF725FBFF20B4
:10704000FFF7EEFA374B1968891C0A8836490A801F
:1070500019460968091D0A8834490A809DF81420D8
:1070600033490A6005E02F490968098888B2FFF7AB
:107070000BFB2C490968891D0A88BDF80410914250
:107080004AD22849096808310A889DF806109142B9
:107090001CD2244909680C310A689DF80610890041
:1070A000511809680291091D0A78BDF8041091422F
:1070B0000CD19DF80610491C8DF80610BDF804107F
:1070C000491CADF804100298FFF726FB1549096822
:1070D00010310A889DF80C1091421CD211490968A0
:1070E00014310A689DF80C10890051180968049140
:1070F000091D0A78BDF8041091420CD19DF80C10BE
:10710000491C8DF80C10BDF80410491CADF8041092
:107110000498FFF749FAACE7DDF800E006B07047E5
:107120002C07FF1F2007FF1F3207FF1FC407FF1F89
:107130000010FE430D4D00005D3F00009121000056
:1066880084B0CDF800E0ADF80C00002252B21A49EF
:106698000A60FDF7A3FC68B1184909884C1E18491F
:1066A8000988491EA3B28AB200210020154C24682B
:1066B800A04704E000210020134C2468A04710499B
:1066C8000A880E4909885143029100210191029AD2
:1066D8000199914208D2BDF80C000C4C2468A047DF
:1066E8000199491C0191F2E7012252B202490A605C
:1066F800DDF800E004B070472C10FE432408FF1FAB
:106708001408FF1F2808FF1F2C08FF1F1008FF1F71
:105C0C0083B0CDF800E09EB293B28AB281B2494C17
:105C1C002488B4F5F07F05D8474C2488B4F5F07F80
:105C2C0000D804E040F2203840F2E01703E040F2E4
:105C3C00E01840F21017414C24785A2C1DD1FEF775
:105C4C0041F968B1A8F10105ADB2AC1BADF8044047
:105C5C00AC1AADF80640ADF80810ADF80A300BE000
:105C6C00ADF80420ADF806607D1EADB2EC1AADF8AF
:105C7C0008406C1AADF80A401CE0FEF723F988B115
:105C8C00A8F10105ADB2EC1AADF804406C1AADF8F0
:105C9C0006407D1EADB2AC1BADF80840AC1AADF899
:105CAC000A4007E0ADF80410ADF80630ADF8082056
:105CBC00ADF80A602A20224C2468A047BDF80440A5
:105CCC00240AE0B21F4C2468A047BDF804001D4C08
:105CDC002468A047BDF80640240AE0B2194C246899
:105CEC00A047BDF80600174C2468A0472B20144C85
:105CFC002468A047BDF80840240AE0B2114C24687F
:105D0C00A047BDF808000F4C2468A047BDF80A4016
:105D1C00240AE0B20B4C2468A047BDF80A00094CD9
:105D2C002468A0472C20064C2468A047DDF800E02E
:105D3C0003B070471408FF1F2408FF1F0901FF1F41
:085D4C000808FF1F0C08FF1FEF
:105AA40083B0CDF800E09EB293B28AB281B2514C79
:105AB4002488B4F5F07F05D84F4C2488B4F5F07FE2
:105AC40000D804E040F2203840F2E01712E0494CDC
:105AD4002488B4F5A07F05D8474C2488B4F5A07F6A
:105AE40000D804E040F2E01840F2101702E040F25F
:105AF4004018F027414C24785A2C1DD1FEF7E6F9C2
:105B040060B1ADF80420ADF806607D1EADB2EC1AAC
:105B1400ADF808406C1AADF80A400CE0A8F1010594
:105B2400ADB2AC1BADF80440AC1AADF80640ADF80C
:105B34000810ADF80A301CE0FEF7C8F940B1ADF822
:105B44000410ADF80630ADF80820ADF80A6010E096
:105B5400A8F10105ADB2EC1AADF804406C1AADF829
:105B640006407D1EADB2AC1BADF80840AC1AADF8D2
:105B74000A402A20224C2468A047BDF80440240A85
:105B8400E0B2204C2468A047BDF804001D4C2468F2
:105B9400A047BDF80640240AE0B21A4C2468A04786
:105BA400BDF80600174C2468A0472B20144C246829
:105BB400A047BDF80840240AE0B2124C2468A0476C
:105BC400BDF808000F4C2468A047BDF80A40240A19
:105BD400E0B20C4C2468A047BDF80A00094C2468C4
:105BE400A0472C20064C2468A047DDF800E003B051
:105BF400704700BF1408FF1F2408FF1F0901FF1F7F
:085C04000808FF1F0C08FF1F38
:1058880083B0CDF800E0ADF80400ADF808100220B0
:10589800174C2468A047BDF80420140AE0B2154C40
:1058A8002468A0470320124C2468A047BDF80400D0
:1058B800104C2468A04706200D4C2468A047BDF86A
:1058C8000820140AE0B20B4C2468A0470720084CB3
:1058D8002468A047BDF80800064C2468A047222089
:1058E800034C2468A047DDF800E003B0704700BF10
:0858F8000808FF1F0C08FF1F48
:1058200083B0CDF800E0ADF80400ADF808102A20F0
:10583000134C2468A047BDF80420140AE0B2114CB0
:105840002468A047BDF804000E4C2468A0472B2014
:105850000B4C2468A047BDF80820140AE0B2094C9C
:105860002468A047BDF80800064C2468A0472C20F7
:10587000034C2468A047DDF800E003B0704700BF88
:085880000808FF1F0C08FF1FC0
:1059000083B0CDF800E0ADF80400ADF808102E4AE1
:1059100012785A2A28D102202C4C2468A047BDF8BE
:105920000420140AE0B22A4C2468A0470320274C24
:105930002468A047BDF80400254C2468A047062031
:10594000224C2468A047BDF80820140AE0B2204C7D
:105950002468A04707201D4C2468A047BDF8080014
:105960001B4C2468A04727E00220184C2468A0475D
:10597000BDF80820140AE0B2154C2468A0470320A3
:10598000124C2468A047BDF80800114C2468A047B9
:1059900006200E4C2468A047BDF80420140AE0B28B
:1059A0000B4C2468A0470720084C2468A047BDF88A
:1059B0000400074C2468A0472220044C2468A04718
:1059C000DDF800E003B070470901FF1F0808FF1F62
:0459D0000C08FF1FA1
:105A3C0083B0CDF800E0ADF80400ADF808102A20D2
:105A4C00134C2468A047BDF80420140AE0B2114C92
:105A5C002468A047BDF804000E4C2468A0472B20F6
:105A6C000B4C2468A047BDF80820140AE0B2094C7E
:105A7C002468A047BDF80800064C2468A0472C20D9
:105A8C00034C2468A047DDF800E003B0704700BF6A
:085A9C000808FF1F0C08FF1FA2
:1059D40083B0CDF800E0ADF80400ADF808102A203B
:1059E400134C2468A047BDF80420140AE0B2114CFB
:1059F4002468A047BDF804000E4C2468A0472B205F
:105A04000B4C2468A047BDF80820140AE0B2094CE6
:105A14002468A047BDF80800064C2468A0472C2041
:105A2400034C2468A047DDF800E003B0704700BFD2
:085A34000808FF1F0C08FF1F0A
:1052540083B0CDF800E0ADF80400ADF808102A20C2
:10526400134C2468A047BDF80420140AE0B2114C82
:105274002468A047BDF804000E4C2468A0472B20E6
:105284000B4C2468A047BDF80820140AE0B2094C6E
:105294002468A047BDF80800064C2468A0472C20C9
:1052A400034C2468A047DDF800E003B0704700BF5A
:0852B4000808FF1F0C08FF1F92
:104CA40083B0CDF800E0ADF80400ADF808102A2078
:104CB400134C2468A047BDF80420140AE0B2114C38
:104CC4002468A047BDF804000E4C2468A0472B209C
:104CD4000B4C2468A047BDF80820140AE0B2094C24
:104CE4002468A047BDF80800064C2468A0472C207F
:104CF400034C2468A047DDF800E003B0704700BF10
:084D04000808FF1F0C08FF1F47
:104D0C0082B0CDF800E0ADF80400012252B20C499B
:104D1C000A6001AB1978CAB2591C0978C8B2D1B271
:104D2C00FBF7CCFF002252B206490A6000BF0122F9
:104D3C0052B204490A60DDF800E002B0704700BFCF
:084D4C003010FE433810FE4355
:104C480082B0CDF800E0ADF80400012252B211495B
:104C58000A6001A9491C0978C8B2FCF729F90022A1
:104C680052B20D490A6000BF012252B20A490A60D5
:104C780001A90978C8B2FCF71BF9002252B206490B
:104C88000A6000BF012252B203490A60DDF800E061
:0C4C980002B070473010FE433810FE439D
:104C1C00012252B206490A6006490880002252B2AB
:104C2C0005490A6000BF012252B203490A6070476D
:0C4C3C003010FE43C0F00F403810FE4363
:104BBC0081B0CDF800E084B2E10AC8B2C100CDB238
:104BCC00E909C9B2012902D1E91DC8B200E0E8B275
:104BDC00FFF718F96109C8B28100CDB2E909C9B271
:104BEC00012902D1E91CC8B200E0E8B2FFF70AF9CA
:104BFC00E100CCB2E109C9B2012902D1E11DC8B270
:104C0C0000E0E0B2FFF7FEF8DDF800E001B070471D
:103FE40081B00248007801B0704700BF6D00FF1F28
:1067180083B0CDF800E000F212010978002900F0FA
:106728001B818F490978012925D100228C490A70DB
:1067380000F22A0109888EB200F22C0109888DB274
:1067480000F228010978CCB200F227010978CBB20F
:1067580000F2320109888AB200F214010978019026
:10676800C8B291B2DAB2E3B240B420B4FEF7E2FDA7
:1067780002B0019821E000F22C0109888EB200F2E3
:106788002A0109888DB200F228010978CCB200F2FA
:1067980027010978CBB200F22E0109888AB200F2EB
:1067A800140109780190C8B291B2DAB2E3B240B4E8
:1067B80020B4FEF7BFFD02B0019800F20E0109787F
:1067C800CAB200F210010988019088B2D1B2FEF76E
:1067D800BBFF019800F230010978CEB200F208013F
:1067E8000A8800F20C010988511889B28D1E811D92
:1067F8000C8800F20A010988611889B28B1E521CA4
:10680800611C019088B291B29AB2ABB240B4FDF764
:10681800EDFB01B0019800F22601097871B100F290
:10682800240109888AB200F220010968019008460B
:1068380091B20222FEF7D4FC01980DE000F2240187
:1068480009888AB200F2200109680190084691B2CD
:106858000022FEF7C5FC019800F2080109888BB2F6
:10686800811D09888AB200F218010968019008465A
:1068780091B29AB2FEF7E6FB019800F21C01097882
:1068880029B9811D0988091DADF8081026E000F214
:106898001C01097801290ED1811D0B8800F20A011B
:1068A8000A8830490988511A89B2490889B25918A1
:1068B800ADF8081012E000F21C01097802290DD188
:1068C800811D0A8800F20A010988521892B22549E6
:1068D8000988511A89B2091FADF8081000F21D0184
:1068E800097831B900F208010988C91CADF80A1005
:1068F80028E000F21D01097801290FD100F20801F2
:106908000B8800F20C010A8817490988511A89B2C4
:10691800490889B25918ADF80A1013E000F21D01B0
:10692800097802290ED100F208010A8800F20C0148
:106938000988521892B20C490988511A89B2091F5C
:10694800ADF80A1000F218010968BDF80A200846D7
:10695800BDF80810FEF700FCDDF800E003B0704752
:0C6968002C07FF1F2E07FF1F3007FF1F2A
:103FF4008BB0CDF800E0ADF81C00ADF82010ADF8A2
:104004002420ADF82830BDF82C40ADF82C40BDF884
:104014002450BDF81C40641B20B224B2002C0ADAE0
:1040240045422DB2BDF82C406400A4B2A54201D291
:1040340000F09FBD07E0BDF82C406400A4B2A0428C
:1040440001D200F096BDBDF82850BDF82040641B95
:1040540020B224B2002C0ADA45422DB2BDF82C401D
:104064006400A4B2A54201D200F083BD07E0BDF80C
:104074002C406400A4B2A04201D200F07ABDE34E09
:104084003488ADF81640E24D2C788DF81840E14C98
:104094002488348000242C70BDF82C50BDF82040B6
:1040A40004EB05081FFA88F8BDF82C50BDF824402D
:1040B400671BBFB2A8EB0704ADF80A40BDF82C504B
:1040C400BDF81C406619B6B2A8EB0604ADF80C4066
:1040D400BDF82C50BDF82840651BADB2AC1BADF843
:1040E4000E40EC1BADF81040CB4C2478002C00F0B3
:1040F4008C83C84C2488ADF81240C84C24788DF8C1
:104104001440002424B2ADF80840BDF82C40ADF8AA
:104114000640BDF92C40640024B2C4F10304ADF898
:104124000440BDF90640651C2DB2BDF90840AC42FF
:1041340080F2CD829DF81840002C00F01482B84C17
:104144002478002C40F0FF80BDF82050BDF82840B2
:10415400671BBDF82C50BDF82840651BADB2BDF9F6
:1041640006402D19ADB2BDF820402E1BAD4C25885C
:10417400AD4C2488BBB2B2B2A9B2A0B2FDF770F9BB
:10418400012101F0E3FABDF82C50BDF82840651B6D
:10419400ADB2BDF906402F19BDF82C50BDF824402E
:1041A400651BADB2BDF908402E19BDF82C50BDF801
:1041B4001C406519ADB2BDF908402C1B3AB231B2AE
:1041C40020B2FDF75FFEBDF82050BDF82840671B04
:1041D400BDF82C50BDF820406519ADB2BDF90640BC
:1041E4002D1BADB2BDF820402E1B8E4C25888E4C65
:1041F4002488BBB2B2B2A9B2A0B2FDF731F9012151
:1042040001F0A4FABDF82C50BDF820406519ADB2F8
:10421400BDF906402F1BBDF82C50BDF82440651B8A
:10422400ADB2BDF908402E19BDF82C50BDF81C40A4
:104234006519ADB2BDF908402C1B3AB231B220B2B7
:10424400FDF720FEBDF82050BDF82840671BBDF8DF
:104254002C50BDF82840651BADB2BDF908402D199E
:10426400ADB2BDF820402E1B6E4C25886E4C2488C0
:10427400BBB2B2B2A9B2A0B2FDF7F2F8012101F0CB
:1042840065FABDF82C50BDF82840A4EB05081FFAC8
:1042940088F8BDF9084008EB0407BDF90640A8EB0F
:1042A4000405ADB2BDF90E402E1BBDF9064008EB66
:1042B4000405ADB2BDF910402C1B3AB231B220B2A4
:1042C400FDF7E0FDBDF82050BDF82840671BBDF8A0
:1042D4002C50BDF820406519ADB2BDF908402D1B26
:1042E400ADB2BDF820402E1B4E4C25884E4C248880
:1042F400BBB2B2B2A9B2A0B2FDF7B2F8012101F08B
:1043040025FABDF82C50BDF8204004EB05081FFA2F
:1043140088F8BDF90840A8EB0407BDF9064008EB8E
:104324000405ADB2BDF90A402E1BBDF90640A8EB49
:104334000405ADB2BDF90C402C1B3AB231B220B227
:10434400FDF7A0FD0EE1BDF81C50BDF82440671B2D
:10435400BDF82C50BDF82440651BADB2BDF9084032
:104364002D19ADB2BDF81C402E1B2E4C25882E4CA9
:104374002488BBB2B2B2A9B2A0B2FDF771F8012190
:1043840001F0E4F9BDF82C50BDF82440651BADB232
:10439400BDF908402F19BDF82C50BDF82840651B05
:1043A400ADB2BDF906402E19BDF82C50BDF8204021
:1043B4006519ADB2BDF906402C1B3AB231B220B238
:1043C400FDF72AFEBDF81C50BDF82440671BBDF85C
:1043D4002C50BDF81C406519ADB2BDF908402D1B29
:1043E400ADB2BDF81C402E1B0E4C25880E4C248803
:1043F400BBB2B2B2A9B2A0B2FDF732F8012101F00A
:10440400A5F9BDF82C50BDF81C400FE01E08FF1F95
:104414001808FF1F1608FF1FEB07FF1FEA07FF1FFF
:104424001908FF1F1C08FF1F1A08FF1F6519ADB2EA
:10443400BDF908402F1BBDF82C50BDF82840651B62
:10444400ADB2BDF906402E19BDF82C50BDF8204080
:104454006519ADB2BDF906402C1B3AB231B220B297
:10446400FDF7DAFDBDF81C50BDF82440671BBDF80C
:104474002C50BDF82440651BADB2BDF906402D1982
:10448400ADB2BDF81C402E1BEC4C2588EC4C2488A6
:10449400BBB2B2B2A9B2A0B2FCF7E2FF012101F0B3
:1044A40055F9BDF82C50BDF82440A4EB05081FFABB
:1044B40088F8BDF9064008EB0407BDF9084008EB8D
:1044C4000405ADB2BDF910402E19BDF90840A8EBA2
:1044D4000405ADB2BDF90A402C193AB231B220B28A
:1044E400FDF79AFDBDF81C50BDF82440671BBDF8CC
:1044F4002C50BDF81C406519ADB2BDF906402D1B0A
:10450400ADB2BDF81C402E1BCC4C2588CC4C248865
:10451400BBB2B2B2A9B2A0B2FCF7A2FF012101F072
:1045240015F9BDF82C50BDF81C4004EB05081FFA22
:1045340088F8BDF90640A8EB0407BDF90840A8EBCC
:104544000405ADB2BDF90C402E19BDF9084008EBC5
:104554000405ADB2BDF90E402C193AB231B220B205
:10456400FDF75AFD88E0BDF81650B64C25800125AC
:10457400B54C2570BDF82C50BDF82840651BADB274
:10458400BDF906402F19BDF82C50BDF82440651B19
:10459400ADB2BDF908402E19BDF82C50BDF81C4031
:1045A4006519ADB2BDF908402C1B3AB231B220B244
:1045B400FDF768FCBDF82C50BDF820406519ADB27C
:1045C400BDF906402F1BBDF82C50BDF82440651BD7
:1045D400ADB2BDF908402E19BDF82C50BDF81C40F1
:1045E4006519ADB2BDF908402C1B3AB231B220B204
:1045F400FDF748FCBDF82C50BDF82840A4EB050895
:104604001FFA88F8BDF9084008EB0407BDF9064015
:10461400A8EB0405ADB2BDF90E402E1BBDF9064052
:1046240008EB0405ADB2BDF910402C1B3AB231B20F
:1046340020B2FDF727FCBDF82C50BDF8204004EB58
:1046440005081FFA88F8BDF90840A8EB0407BDF96E
:10465400064008EB0405ADB2BDF90A402E1BBDF9B6
:104664000640A8EB0405ADB2BDF90C402C1B3AB2D0
:1046740031B220B2FDF706FCBDF90440002C0BDA80
:10468400BDF90840A40024B2A51D2DB2BDF9044013
:104694006419ADF8044014E0BDF90650BDF90840B2
:1046A400641B24B2A40024B204F20A052DB2BDF99D
:1046B40004406419ADF80440BDF90640641EADF829
:1046C4000640BDF90840641CADF8084029E59DF892
:1046D4001840002C00F072805C4C2478002C36D1F9
:1046E400BDF82C50BDF820406419ADF80640BDF863
:1046F4002C50BDF82840651BADB2BDF90640AC4254
:1047040024D8BDF82050BDF82840671BBDF82050C0
:10471400BDF90640661B494C2588494C2488BBB228
:10472400B2B2A9B2A0B2FCF79BFE012101F00EF8CF
:10473400BDF90620BDF82410BDF81C00FDF7A2FB4E
:10474400BDF90640641CADF80640D0E735E0BDF87D
:104754002C50BDF81C406419ADF80840BDF82C502D
:10476400BDF82440651BADB2BDF90840AC4224D865
:10477400BDF81C50BDF82440671BBDF81C50BDF9A2
:104784000840661B2D4C25882D4C2488BBB2B2B240
:10479400A9B2A0B2FCF764FE012100F0D7FFBDF975
:1047A4000820BDF82810BDF82000FDF735FCBDF940
:1047B4000840641CADF80840D0E71EE0BDF82C505A
:1047C400BDF820406419ADF80640BDF82C50BDF882
:1047D4002840651BADB2BDF90640AC420DD8BDF909
:1047E4000620BDF82410BDF81C00FDF74BFBBDF9F5
:1047F4000640641CADF80640E7E7BDF81250114CC2
:1048040025809DF81450104C2570002424B2ADF876
:104814000840BDF82C40ADF80640BDF92C406400BA
:1048240024B2C4F10304ADF80440BDF90640651C8C
:104834002DB2BDF90840AC4200F00AB81C08FF1FB5
:104844001A08FF1F1608FF1FEA07FF1F1908FF1F9A
:1048540080F20B81C94C2478641E24B26710BDF821
:104864002C50BDF82840651BADB2BDF906402E1989
:10487400BDF82C50BDF81C406519ADB2BDF9084017
:104884002C1B01233AB231B220B2FCF749FEBB4CD7
:104894002478641E24B26710BDF82C50BDF828405B
:1048A400651BADB2BDF906402E19BDF82C50BDF8FC
:1048B4002440651BADB2BDF908402C1901233AB25E
:1048C40031B220B2FCF72CFEAC4C2478641E24B226
:1048D4006710BDF82C50BDF820406519ADB2BDF984
:1048E40006402E1BBDF82C50BDF81C406519ADB216
:1048F400BDF908402C1B01233AB231B220B2FCF7B7
:104904000FFE9E4C2478641E24B26710BDF82C5010
:10491400BDF820406519ADB2BDF906402E1BBDF8A7
:104924002C50BDF82440651BADB2BDF908402C19CC
:1049340001233AB231B220B2FCF7F2FD8F4C247855
:10494400641E24B26710BDF82C50BDF82840651BC6
:10495400ADB2BDF908402E19BDF906402D19ADB20E
:10496400BDF910402C1B01233AB231B220B2FCF73E
:10497400D7FD824C2478641E24B26710BDF82C50F5
:10498400BDF82840651BADB2BDF908402E19BDF92C
:1049940006402D1BADB2BDF90E402C1B01233AB2CB
:1049A40031B220B2FCF7BCFD744C2478641E24B2EE
:1049B4006710BDF82C50BDF820406519ADB2BDF9A3
:1049C40008402E1BBDF906402D1BADB2BDF90C40AD
:1049D4002C1B01233AB231B220B2FCF7A1FD674C83
:1049E4002478641E24B26710BDF82C50BDF8204012
:1049F4006519ADB2BDF908402E1BBDF906402D194D
:104A0400ADB2BDF90A402C1B01233AB231B220B237
:104A1400FCF786FDBDF90440002C0BDABDF9084013
:104A2400A40024B2A51D2DB2BDF904406419ADF84B
:104A3400044014E0BDF90650BDF90840641B24B2DB
:104A4400A40024B204F20A052DB2BDF9044064198D
:104A5400ADF80440BDF90640641EADF80640BDF94A
:104A64000840641CADF80840DFE6BDF82C50BDF8E2
:104A74002440661BBDF82C50BDF81C406419BDF8D9
:104A8400203032B2BDF8201020B2FDF745F83B4C7F
:104A9400247804F00104E4B294B1BDF82C50BDF8BC
:104AA4002440661BBDF82C50BDF81C406419BDF8A9
:104AB400283032B2BDF8281020B2FDF72DF812E0EC
:104AC400BDF82840671CBDF82C50BDF82440661B77
:104AD400BDF82C50BDF81C4064193BB232B239B257
:104AE40020B2FDF719F8BDF82C50BDF82840661B1C
:104AF400BDF82C50BDF82040641933B2BDF81C2019
:104B040021B2BDF81C00FDF707F81C4C247804F012
:104B14000104E4B294B1BDF82C50BDF82840661BE2
:104B2400BDF82C50BDF82040641933B2BDF82420E0
:104B340021B2BDF82400FCF7EFFF12E0BDF82C50C1
:104B4400BDF82840671BBDF82440661CBDF82C50F6
:104B5400BDF8204064193BB232B221B230B2FCF746
:104B6400DBFFBDF81650064C25809DF81850054C07
:104B74002570DDF800E00BB0704700BFEA07FF1FA7
:084B84001E08FF1F1808FF1FA7
:1014640083B0CDF800E087B21FFA81F81FFA82F941
:101474001FFA83FAB9F1000F01D1B8B24CE0D1459B
:1014840002D11FFA88F047E002AE0DF1060501AC67
:1014940033462A462146B8B2FFF71EFC0DF1090671
:1014A4000DF107050DF1050433462A4621461FFABE
:1014B40088F0FFF711FC1FFA89F69DF805509DF896
:1014C40004402C1B24B2744394FBFAF59DF80440A9
:1014D40004EB05081FFA89F69DF807509DF80640AD
:1014E4002C1B24B2744394FBFAF59DF8064067194B
:1014F4001FFA89F69DF809509DF808402C1B24B268
:10150400744394FBFAF59DF808406419E2B2F9B209
:101514005FFA88F0FFF7F0FEDDF800E003B07047F3
:100CDC0081B0C40AA4B2E4000C704409A4B2A4000C
:0A0CEC001470C4001C7001B07047C2
:1012FC0081B0C308DBB2DC02A4B28B08DBB25B01A9
:10130C009BB21C43A4B2D308DBB244EA030398B2E9
:04131C0001B0704765
:101E880086B0CDF800E0ADF80C00ADF81010ADF854
:101E98001420BDF91040BDF90C30A34207DDBDF98F
:101EA8000C00BDF91030ADF80C30ADF81000BDF9DC
:101EB8000C30002B04DA00231BB2ADF80C3006E01E
:101EC8004B4B1C88BDF90C30A34200D38CE0BDF904
:101ED8001030002B00DA87E0454B1C88BDF9103024
:101EE800A34204D3424B1B885B1EADF8103001237C
:101EF8008DF808303F4B1C789DF80830A34200F25B
:101F080073809DF8080000F001031BB21BB9414221
:101F180009B208B2FFE7441024B221B2BDF9143067
:101F28001B191BB2002B08DBBDF914305C1824B256
:101F3800314B1B889C4200D200E04FE02F4B1B78AE
:101F4800002B35D1002464B22D4B1C6002F046F8FA
:101F580060B1BDF914305C18A3B2BDF91020A1B26C
:101F6800BDF90C00274C2468A04708E0BDF91430DF
:101F78005C18A1B2BDF90C00234C2468A047BDF938
:101F88000C00BDF9103098420DD8204B1C88ADF8D4
:101F98000400A0B21E4C2468A047BDF80400411CF0
:101FA80089B288B2EDE7012464B2154B1C6015E0D4
:101FB800BDF90C00BDF9103098420FD8134B1B889F
:101FC800ADF804009AB2BDF9141000B2FEF7D8FFBC
:101FD800BDF80400431C99B288B2EBE79DF80830BD
:101FE8005B1C8DF8083085E7DDF800E006B0704727
:101FF8001408FF1FEA07FF1F2408FF1F0301FF1F24
:102008002C10FE432808FF1F2C08FF1F1608FF1F6F
:042018001008FF1F8E
:100F880082B0CDF800E0ADF804200AB201B2002921
:100F980004DB174B1B88994200D200E024E0002AAA
:100FA80004DB144B1B889A4200D200E01CE00024AA
:100FB80064B2114B1C6003F011F838B193B28AB2D5
:100FC80099B290B20D4C2468A04704E088B291B25F
:100FD8000B4C2468A047BDF804000A4C2468A047BD
:100FE800012464B2044B1C60DDF800E002B07047D5
:100FF8001408FF1F2408FF1F2C10FE432808FF1F9A
:081008002C08FF1F1008FF1F58
:10201C0086B0CDF800E0ADF8041001B2BDF90400B3
:10202C00814203DD8BB201B218B2FFE7002902DA5C
:10203C00002109B204E02F4B1B88994200D355E0D4
:10204C00002800DA52E02B4B1B88984205D3294B11
:10205C001B885B1E18B203B200E003B2012015B25C
:10206C000AB219B2244B1B7898423FD8C4B204F080
:10207C0001031BB213B9644224B2FFE763101BB215
:10208C001EB2EB181BB2002B06DBAC1924B21B4B97
:10209C001B889C4200D200E025E097B28F4222D8E8
:1020AC00174B1C88AB198DF80400ADF80810ADF86F
:1020BC000C20ADF81050ADF81260ADF81470A2B24F
:1020CC0039B218B2FEF75AFFBDF81470BDF91260A0
:1020DC00BDF91050BDF90C20BDF908109DF8040095
:1020EC007F1CBFB2DAE7401CC0B2BBE7DDF800E0F2
:1020FC0006B070472408FF1FEA07FF1F1408FF1FD4
:04210C001608FF1F93
:1015240089B0CDF800E0ADF81800ADF81C108DF8C6
:101534002030E24E34788DF81440E14D2C88ADF81B
:10154400164001243470DF4C24882C80BDF91840E7
:10155400A41A24B2641CADF80C40BDF91840A418B8
:1015640024B2641EADF80E40BDF91C40A41A24B286
:10157400641CADF81040BDF91C40A41824B2641ECC
:10158400ADF81240002424B2ADF80840BDF918505B
:10159400BDF91C40641BADF80A40ADF806205400A8
:1015A40024B2C4F10304ADF80440BDF90640651C3F
:1015B4002DB2BDF90840AC4280F29B82C24C247823
:1015C400002C00F0AE81C14C2478002C40F0CD807A
:1015D400BDF91050BDF91240671BBDF90650BDF9A5
:1015E4001C4065192DB2BDF910402E1BB84C25883E
:1015F400B84C2488BBB2B2B2A9B2A0B2FFF730FF94
:10160400012104F0A3F8BDF90650BDF91C40671987
:10161400BDF90850BDF91840661BBDF90850BDF965
:10162400184064193AB231B220B200F02BFCBDF973
:101634001050BDF91240671BBDF90650BDF91C409E
:10164400651B2DB2BDF910402E1BA14C2588A14C61
:101654002488BBB2B2B2A9B2A0B2FFF701FF012144
:1016640004F074F8BDF90650BDF91C40671BBDF9C0
:101674000850BDF91840661BBDF90850BDF9184063
:1016840064193AB231B220B200F0FCFBBDF910503B
:10169400BDF91240671BBDF90850BDF91C4065191E
:1016A4002DB2BDF910402E1B894C2588894C248805
:1016B400BBB2B2B2A9B2A0B2FFF7D2FE012104F0CC
:1016C40045F8BDF90850BDF91C406719BDF906502D
:1016D400BDF91C40651B2DB2BDF90A402E1BBDF996
:1016E4000650BDF91C4065192DB2BDF90A402C1BEA
:1016F4003AB231B220B200F0C5FBBDF91050BDF9C9
:101704001240671BBDF90850BDF91C40651B2DB282
:10171400BDF910402E1B6E4C25886E4C2488BBB23C
:10172400B2B2A9B2A0B2FFF79BFE012104F00EF8F9
:10173400BDF90850BDF91C40671BBDF90650BDF941
:101744001C40651B2DB2BDF90A402E1BBDF9065085
:10175400BDF91C4065192DB2BDF90A402C1B3AB2E3
:1017640031B220B200F08EFBDAE0BDF90C50BDF9C5
:101774000E40671BBDF90850BDF9184065192DB21C
:10178400BDF90C402E1B524C2588524C2488BBB208
:10179400B2B2A9B2A0B2FFF763FE012103F0D6FFF3
:1017A400BDF90850BDF918406719BDF90650BDF9D7
:1017B4001C40661BBDF90650BDF91C4064193AB2C1
:1017C40031B220B200F028FCBDF90C50BDF90E4036
:1017D400671BBDF90850BDF91840651B2DB2BDF952
:1017E4000C402E1B3A4C25883A4C2488BBB2B2B22A
:1017F400A9B2A0B2FFF734FE012103F0A7FFBDF99F
:101804000850BDF91840671BBDF90650BDF91C40CE
:10181400661BBDF90650BDF91C4064193AB231B2D9
:1018240020B200F0F9FBBDF90C50BDF90E40671B66
:10183400BDF90650BDF91C4065192DB2BDF90A4029
:101844002D1B2DB2BDF90C402E1B214C2588214C9B
:101854002488BBB2B2B2A9B2A0B2FFF701FE012143
:1018640003F074FFBDF90650BDF91C4065192DB293
:10187400BDF90A402F1BBDF90850BDF91C40661B79
:10188400BDF90850BDF91C4064193AB231B220B216
:1018940000F0C2FBBDF90C50BDF90E40671BBDF949
:1018A4000650BDF91C40651B2DB2BDF90A402D1B25
:1018B4002DB2BDF90C402E1B054C0DE0EA07FF1FAD
:1018C4001608FF1F1E08FF1F1808FF1F1908FF1F17
:1018D4001C08FF1F1A08FF1F25888C4C2488BBB2E4
:1018E400B2B2A9B2A0B2FFF7BBFD012103F02EFFF3
:1018F400BDF90650BDF91C40651B2DB2BDF90A4067
:101904002F1BBDF90850BDF91C40661BBDF90850DA
:10191400BDF91C4064193AB231B220B200F07CFB2C
:10192400BCE09DF82040002C58D1BDF90850BDF909
:1019340018406719BDF90650BDF91C40661BBDF976
:101944000650BDF91C4064193AB231B220B200F01D
:1019540063FBBDF90850BDF91840671BBDF906507B
:10196400BDF91C40661BBDF90650BDF91C40641945
:101974003AB231B220B200F04FFBBDF90650BDF9C6
:101984001C4065192DB2BDF90A402F1BBDF9085042
:10199400BDF91C40661BBDF90850BDF91C40641913
:1019A4003AB231B220B200F037FBBDF90650BDF9AE
:1019B4001C40651B2DB2BDF90A402F1BBDF9085010
:1019C400BDF91C40661BBDF90850BDF91C406419E3
:1019D4003AB231B220B200F01FFB5FE0BDF906500D
:1019E400BDF91C406719BDF90850BDF91840661BC4
:1019F400BDF90850BDF9184064193AB231B220B2A9
:101A040000F040FABDF90650BDF91C40671BBDF952
:101A14000850BDF91840661BBDF90850BDF91840BF
:101A240064193AB231B220B200F02CFABDF9085070
:101A3400BDF91C406719BDF90650BDF91C40651B72
:101A44002DB2BDF90A402E1BBDF90650BDF91C404C
:101A540065192DB2BDF90A402C1B3AB231B220B23D
:101A640000F010FABDF90850BDF91C40671BBDF920
:101A74000650BDF91C40651B2DB2BDF90A402E1B52
:101A8400BDF90650BDF91C4065192DB2BDF90A40D7
:101A94002C1B3AB231B220B200F0F4F9BDF9044083
:101AA400002C0BDABDF90840A40024B2A51D2DB208
:101AB400BDF904406419ADF8044014E0BDF90650C2
:101AC400BDF90840641B24B2A40024B204F20A0540
:101AD4002DB2BDF904406419ADF80440BDF90640C7
:101AE400641EADF80640BDF90840641CADF808401A
:101AF4005BE59DF81450064C2570BDF81650054C56
:101B04002580DDF800E009B0704700BF1A08FF1F08
:081B1400EA07FF1F1608FF1F7E
:101B1C0088B0CDF800E0ADF81800ADF81C1015B287
:101B2C0099B2A8B203F0C4FBBDF91840AC4207D17E
:101B3C00BDF9182019B2BDF91C0000F069FA2AE1B0
:101B4C00BDF91C409C4207D1BDF91C2029B2BDF93E
:101B5C00180000F093F91EE10024ADF81240BDF915
:101B6C0018402C1B24B2ADF80840002C0ADABDF941
:101B7C0008406442ADF80840BDF81240641EADF850
:101B8C00124004E0BDF81240641CADF81240002471
:101B9C00ADF81440BDF91C401C1B24B2ADF80A4032
:101BAC00002C0ADABDF90A406442ADF80A40BDF8CF
:101BBC001440641EADF8144004E0BDF81440641CDD
:101BCC00ADF814400024ADF81640BDF90A50BDF92B
:101BDC000840AC4246DABDF81640641CADF816401D
:101BEC00BDF90800BDF90A40ADF80840ADF80A008F
:101BFC00BDF91800BDF91C40ADF81840ADF81C003B
:101C0C00BDF81200BDF81440ADF81240ADF8140048
:101C1C0040F2010A5FFA8AF0614C2478A04220D885
:101C2C00C1B201F0010424B21CB94A4212B211B281
:101C3C00FFE74E1036B25B4C2588BDF91C40A41949
:101C4C008DF80400AAB2BDF9181020B2FFF796F96E
:101C5C009DF8040000F1010A5FFA8AFA5FFA8AF033
:101C6C00DAE727E040F2010A5FFA8AF04C4C24785C
:101C7C00A0421FD8C1B201F0010424B21CB94C42DD
:101C8C0022B211B2FFE74E1036B2464C2588BDF990
:101C9C001C40A4198DF80400AAB221B2BDF9180099
:101CAC00FFF76CF99DF80400441C5FFA84FA5FFAA4
:101CBC008AF0DBE7BDF908406400ADF81040BDF9CF
:101CCC000A4065002DB2ADF80E50BDF908402C1B32
:101CDC00ADF80C40BDF90840641E24B2ADF80840C4
:101CEC00002C58DBBDF90C40002C0DDBBDF814505A
:101CFC00BDF91C406419ADF81C40BDF91050BDF97C
:101D0C000C40641BADF80C40BDF81250BDF91840E6
:101D1C006419ADF81840BDF90E50BDF90C406419AA
:101D2C00ADF80C4001201E4C2478A04232D8C5B22C
:101D3C0005F0010424B214B9694209B200E029B2D9
:101D4C00491009B2BDF816407CB1164C2588BDF976
:101D5C001C4064188DF80400AAB2BDF9181020B20A
:101D6C00FFF70CF99DF804000EE00E4C2588BDF928
:101D7C001C4064188DF80400AAB221B2BDF91800F9
:101D8C00FFF7FCF89DF80400441C5FFA84F85FFA36
:101D9C0088F0C8E79EE7DDF800E008B0704700BFA8
:081DAC00EA07FF1F1608FF1FE4
:1051E80081B0124B1860831C1C78C31C1B781B02EF
:1051F8009BB2E4180E4B1C80031D1C78431D1B78C2
:105208001B029BB2E4180B4B1C80831D1C780A4BB5
:105218001C800A4B19800A4B1A700124094B1C7018
:105228000024094B1C7001B0704700BF3408FF1FF1
:105238003008FF1F3208FF1F3808FF1F3A08FF1FFA
:0C5248002708FF1F0701FF1F2608FF1F9B
:10504C0082B0CDF800E02B4B1B88994200D34CE08A
:10505C00294B1B889A4200D347E00024274B1C8025
:10506C000024274B1C80274B1980274B1980274B7A
:10507C001A80274B1A800446431C19462378DEB24B
:10508C00002B32D0234B1B783BB10191F0B2FCF7D3
:10509C0083F90199401C80B206E00191F0B2FEF751
:1050AC00D9FE0199401C80B21B4B1B78022B0CD1F2
:1050BC001A4B1D88124C23885B1923800F4B1B88BD
:1050CC00834201D20D4B18800DE00C4C23881B1829
:1050DC002380124B1C880A4B1B88A34203D20F4B14
:1050EC001C88074B1C800846C5E7DDF800E002B0C1
:1050FC00704700BF1408FF1F2408FF1F2E07FF1F57
:10510C003007FF1F4A08FF1F5008FF1F5208FF1FE0
:10511C005408FF1F2608FF1F2708FF1F3808FF1F12
:1013A40081B0CDF800E00F490988884200D215E0E9
:1013B4000D490988884200D910E00A490988411A70
:1013C40089B28A0092B20949096808318918084625
:1013D4000421FFF731FD06480178C8B2DDF800E0CA
:1013E40001B070473008FF1F3208FF1F3C08FF1F81
:0413F4004008FF1F8F
:100E3C0085B0CDF800E0154D0346002922D904AC4D
:100E4C000193ADF80810039522461846104C2468FF
:100E5C00A047039DBDF80810019B04460020BDF877
:100E6C001020904206D222782A706D1C641C401C03
:100E7C0080B2F4E7BDF81020891A89B2BDF81020B1
:100E8C009B18DAE7DDF800E005B070474008FF1F5B
:040E9C004C08FF1FE0
:103E600081B0CDF800E085B21449097849B9144908
:103E70000022084640F2000101F0B6F901220F4984
:103E80000A70104909888D4201D2002011E00E49C4
:103E900009888D4201D900200BE00A490988691A76
:103EA00089B28A0092B209490968083189180978EB
